{
	"data": {
		"bytecode": {
			"linkReferences": {},
			"object": "608060405234801561001057600080fd5b506002805460ff60a01b19169055612e2b8061002d6000396000f3fe608060405234801561001057600080fd5b50600436106100cf5760003560e01c8063a2e74af61161008c578063c9c6539611610066578063c9c65396146101e6578063e6a4390514610214578063f46901ed14610242578063f887ea4014610268576100cf565b8063a2e74af61461017b578063be32b3f8146101a1578063c0d78655146101c0576100cf565b8063017e7e58146100d45780630905f560146100f8578063094b74151461011457806319ab453c1461011c5780631e3dd18b14610144578063574f2ba314610161575b600080fd5b6100dc610270565b604080516001600160a01b039092168252519081900360200190f35b61010061027f565b604080519115158252519081900360200190f35b6100dc61028f565b6101426004803603602081101561013257600080fd5b50356001600160a01b031661029e565b005b6100dc6004803603602081101561015a57600080fd5b503561032c565b610169610353565b60408051918252519081900360200190f35b6101426004803603602081101561019157600080fd5b50356001600160a01b0316610359565b610142600480360360208110156101b757600080fd5b50351515610428565b610142600480360360208110156101d657600080fd5b50356001600160a01b031661048f565b6100dc600480360360408110156101fc57600080fd5b506001600160a01b0381358116916020013516610553565b6100dc6004803603604081101561022a57600080fd5b506001600160a01b038135811691602001351661091d565b6101426004803603602081101561025857600080fd5b50356001600160a01b0316610943565b6100dc610a12565b6000546001600160a01b031681565b600254600160a01b900460ff1681565b6001546001600160a01b031681565b6002546001600160a01b0316156102fc576040805162461bcd60e51b815260206004820152601c60248201527f4d6174657269613a20494e49545f414c52454144595f43414c4c454400000000604482015290519081900360640190fd5b60028054336001600160a01b031991821617909155600180549091166001600160a01b0392909216919091179055565b6004818154811061033957fe5b6000918252602090912001546001600160a01b0316905081565b60045490565b600254600160a01b900460ff16156103b2576040805162461bcd60e51b81526020600482015260176024820152764d6174657269613a20454d455247454e43595f4d4f444560481b604482015290519081900360640190fd5b6001546001600160a01b03163314610406576040805162461bcd60e51b815260206004820152601260248201527126b0ba32b934b09d102327a92124a22222a760711b604482015290519081900360640190fd5b600180546001600160a01b0319166001600160a01b0392909216919091179055565b6002546001600160a01b031633146104715760405162461bcd60e51b8152600401808060200182810382526021815260200180612dd66021913960400191505060405180910390fd5b60028054911515600160a01b0260ff60a01b19909216919091179055565b6002546001600160a01b031633146104d85760405162461bcd60e51b8152600401808060200182810382526021815260200180612dd66021913960400191505060405180910390fd5b600254600160a01b900460ff1615610531576040805162461bcd60e51b81526020600482015260176024820152764d6174657269613a20454d455247454e43595f4d4f444560481b604482015290519081900360640190fd5b600280546001600160a01b0319166001600160a01b0392909216919091179055565b6002546000906001600160a01b0316331461059f5760405162461bcd60e51b8152600401808060200182810382526021815260200180612dd66021913960400191505060405180910390fd5b600254600160a01b900460ff16156105f8576040805162461bcd60e51b81526020600482015260176024820152764d6174657269613a20454d455247454e43595f4d4f444560481b604482015290519081900360640190fd5b816001600160a01b0316836001600160a01b0316141561065f576040805162461bcd60e51b815260206004820152601c60248201527f4d6174657269613a204944454e544943414c5f41444452455353455300000000604482015290519081900360640190fd5b600080836001600160a01b0316856001600160a01b031610610682578385610685565b84845b90925090506001600160a01b0382166106dd576040805162461bcd60e51b81526020600482015260156024820152744d6174657269613a205a45524f5f4144445245535360581b604482015290519081900360640190fd5b6001600160a01b0382811660009081526003602090815260408083208585168452909152902054161561074e576040805162461bcd60e51b81526020600482015260146024820152734d6174657269613a20504149525f45584953545360601b604482015290519081900360640190fd5b60606040518060200161076090610a21565b6020820181038252601f19601f8201166040525090506000838360405160200180836001600160a01b03166001600160a01b031660601b8152601401826001600160a01b03166001600160a01b031660601b815260140192505050604051602081830303815290604052805190602001209050808251602084016000f56040805163485cc95560e01b81526001600160a01b038781166004830152868116602483015291519297509087169163485cc9559160448082019260009290919082900301818387803b15801561083357600080fd5b505af1158015610847573d6000803e3d6000fd5b505050506001600160a01b0384811660008181526003602081815260408084208987168086529083528185208054978d166001600160a01b031998891681179091559383528185208686528352818520805488168517905560048054600181018255958190527f8a35acfbc15ff81a39ae7d344fd709f28e8600b4aa8c65c6b64bfe7fe36bd19b90950180549097168417909655925483519283529082015281517f0d3648bd0f6ba80134a33ba9275ac585d9d315f0ad8355cddefde31afa28d0e9929181900390910190a35050505092915050565b60036020908152600092835260408084209091529082529020546001600160a01b031681565b600254600160a01b900460ff161561099c576040805162461bcd60e51b81526020600482015260176024820152764d6174657269613a20454d455247454e43595f4d4f444560481b604482015290519081900360640190fd5b6001546001600160a01b031633146109f0576040805162461bcd60e51b815260206004820152601260248201527126b0ba32b934b09d102327a92124a22222a760711b604482015290519081900360640190fd5b600080546001600160a01b0319166001600160a01b0392909216919091179055565b6002546001600160a01b031681565b6123a780610a2f8339019056fe60806040526001600c5534801561001557600080fd5b506040514690806052612355823960408051918290036052018220828201825260078352664d61746572696160c81b6020938401528151808301835260018152603160f81b908401528151808401919091527f2de313bb38832044d8f9644a6b3b93feb8059bbe48fcf5fec0af0bedb4885c74818301527fc89efdaa54c0f20c7adf612882df0950f5a951637e0307cdcb4c672f298b8bc6606082015260808101949094523060a0808601919091528151808603909101815260c09094019052825192019190912060035550600580546001600160a01b03191633179055612253806101026000396000f3fe608060405234801561001057600080fd5b50600436106101a95760003560e01c80636a627842116100f9578063ba9a7a5611610097578063d21220a711610071578063d21220a714610534578063d505accf1461053c578063dd62ed3e1461058d578063fff6cae9146105bb576101a9565b8063ba9a7a56146104fe578063bc25cf7714610506578063c45a01551461052c576101a9565b80637ecebe00116100d35780637ecebe001461046557806389afcb441461048b57806395d89b41146104ca578063a9059cbb146104d2576101a9565b80636a6278421461041157806370a08231146104375780637464fc3d1461045d576101a9565b806323b872dd116101665780633644e515116101405780633644e515146103cb578063485cc955146103d35780635909c0d5146104015780635a3d549314610409576101a9565b806323b872dd1461036f57806330adf81f146103a5578063313ce567146103ad576101a9565b8063022c0d9f146101ae57806306fdde031461023c5780630902f1ac146102b9578063095ea7b3146102f15780630dfe16811461033157806318160ddd14610355575b600080fd5b61023a600480360360808110156101c457600080fd5b8135916020810135916001600160a01b0360408301351691908101906080810160608201356401000000008111156101fb57600080fd5b82018360208201111561020d57600080fd5b8035906020019184600183028401116401000000008311171561022f57600080fd5b5090925090506105c3565b005b610244610b0e565b6040805160208082528351818301528351919283929083019185019080838360005b8381101561027e578181015183820152602001610266565b50505050905090810190601f1680156102ab5780820380516001836020036101000a031916815260200191505b509250505060405180910390f35b6102c1610b31565b604080516001600160701b03948516815292909316602083015263ffffffff168183015290519081900360600190f35b61031d6004803603604081101561030757600080fd5b506001600160a01b038135169060200135610b5b565b604080519115158252519081900360200190f35b610339610b72565b604080516001600160a01b039092168252519081900360200190f35b61035d610b81565b60408051918252519081900360200190f35b61031d6004803603606081101561038557600080fd5b506001600160a01b03813581169160208101359091169060400135610b87565b61035d610c21565b6103b5610c45565b6040805160ff9092168252519081900360200190f35b61035d610c4a565b61023a600480360360408110156103e957600080fd5b506001600160a01b0381358116916020013516610c50565b61035d610cd2565b61035d610cd8565b61035d6004803603602081101561042757600080fd5b50356001600160a01b0316610cde565b61035d6004803603602081101561044d57600080fd5b50356001600160a01b0316610fdc565b61035d610fee565b61035d6004803603602081101561047b57600080fd5b50356001600160a01b0316610ff4565b6104b1600480360360208110156104a157600080fd5b50356001600160a01b0316611006565b6040805192835260208301919091528051918290030190f35b6102446113aa565b61031d600480360360408110156104e857600080fd5b506001600160a01b0381351690602001356113c8565b61035d6113d5565b61023a6004803603602081101561051c57600080fd5b50356001600160a01b03166113db565b610339611544565b610339611553565b61023a600480360360e081101561055257600080fd5b506001600160a01b03813581169160208101359091169060408101359060608101359060ff6080820135169060a08101359060c00135611562565b61035d600480360360408110156105a357600080fd5b506001600160a01b0381358116916020013516611762565b61023a61177f565b600c5460011461060c576040805162461bcd60e51b815260206004820152600f60248201526e13585d195c9a584e881313d0d2d151608a1b604482015290519081900360640190fd5b6000600c558415158061061f5750600084115b61065a5760405162461bcd60e51b81526004018080602001828103825260238152602001806121da6023913960400191505060405180910390fd5b600080610665610b31565b5091509150816001600160701b03168710801561068a5750806001600160701b031686105b6106db576040805162461bcd60e51b815260206004820152601f60248201527f4d6174657269613a20494e53554646494349454e545f4c495155494449545900604482015290519081900360640190fd5b60065460075460009182916001600160a01b039182169190811690891682148015906107195750806001600160a01b0316896001600160a01b031614155b610760576040805162461bcd60e51b81526020600482015260136024820152724d6174657269613a20494e56414c49445f544f60681b604482015290519081900360640190fd5b8a1561077157610771828a8d6118df565b891561078257610782818a8c6118df565b861561083d57886001600160a01b0316638b504dfa338d8d8c8c6040518663ffffffff1660e01b815260040180866001600160a01b03166001600160a01b03168152602001858152602001848152602001806020018281038252848482818152602001925080828437600081840152601f19601f8201169050808301925050509650505050505050600060405180830381600087803b15801561082457600080fd5b505af1158015610838573d6000803e3d6000fd5b505050505b604080516370a0823160e01b815230600482015290516001600160a01b038416916370a08231916024808301926020929190829003018186803b15801561088357600080fd5b505afa158015610897573d6000803e3d6000fd5b505050506040513d60208110156108ad57600080fd5b5051604080516370a0823160e01b815230600482015290519195506001600160a01b038316916370a0823191602480820192602092909190829003018186803b1580156108f957600080fd5b505afa15801561090d573d6000803e3d6000fd5b505050506040513d602081101561092357600080fd5b5051925060009150506001600160701b0385168a90038311610946576000610955565b89856001600160701b03160383035b9050600089856001600160701b0316038311610972576000610981565b89856001600160701b03160383035b905060008211806109925750600081115b6109cd5760405162461bcd60e51b81526004018080602001828103825260228152602001806121fd6022913960400191505060405180910390fd5b6000610a016109e384600363ffffffff611a7916565b6109f5876103e863ffffffff611a7916565b9063ffffffff611adc16565b90506000610a196109e384600363ffffffff611a7916565b9050610a4a620f4240610a3e6001600160701b038b8116908b1663ffffffff611a7916565b9063ffffffff611a7916565b610a5a838363ffffffff611a7916565b1015610a9a576040805162461bcd60e51b815260206004820152600a6024820152694d6174657269613a204b60b01b604482015290519081900360640190fd5b5050610aa884848888611b2c565b60408051838152602081018390528082018d9052606081018c905290516001600160a01b038b169133917fd78ad95fa46c994b6551d0da85fc275fe613ce37657fb8d5e3d130840159d8229181900360800190a350506001600c55505050505050505050565b604051806040016040528060078152602001664d61746572696160c81b81525081565b6008546001600160701b0380821692600160701b830490911691600160e01b900463ffffffff1690565b6000610b68338484611cef565b5060015b92915050565b6006546001600160a01b031681565b60005481565b6001600160a01b038316600090815260026020908152604080832033845290915281205460001914610c0c576001600160a01b0384166000908152600260209081526040808320338452909152902054610be7908363ffffffff611adc16565b6001600160a01b03851660009081526002602090815260408083203384529091529020555b610c17848484611d51565b5060019392505050565b7f6e71edae12b1b97f4d1f60370fef10105fa2faae0126114a169c64845d6126c981565b601281565b60035481565b6005546001600160a01b03163314610ca4576040805162461bcd60e51b815260206004820152601260248201527126b0ba32b934b09d102327a92124a22222a760711b604482015290519081900360640190fd5b600680546001600160a01b039384166001600160a01b03199182161790915560078054929093169116179055565b60095481565b600a5481565b6000600c54600114610d29576040805162461bcd60e51b815260206004820152600f60248201526e13585d195c9a584e881313d0d2d151608a1b604482015290519081900360640190fd5b6000600c81905580610d39610b31565b50600654604080516370a0823160e01b815230600482015290519395509193506000926001600160a01b03909116916370a08231916024808301926020929190829003018186803b158015610d8d57600080fd5b505afa158015610da1573d6000803e3d6000fd5b505050506040513d6020811015610db757600080fd5b5051600754604080516370a0823160e01b815230600482015290519293506000926001600160a01b03909216916370a0823191602480820192602092909190829003018186803b158015610e0a57600080fd5b505afa158015610e1e573d6000803e3d6000fd5b505050506040513d6020811015610e3457600080fd5b505190506000610e53836001600160701b03871663ffffffff611adc16565b90506000610e70836001600160701b03871663ffffffff611adc16565b90506000610e7e8787611e0b565b60005490915080610ebb57610ea76103e86109f5610ea2878763ffffffff611a7916565b611f69565b9850610eb660006103e8611fbb565b610f0a565b610f076001600160701b038916610ed8868463ffffffff611a7916565b81610edf57fe5b046001600160701b038916610efa868563ffffffff611a7916565b81610f0157fe5b04612051565b98505b60008911610f495760405162461bcd60e51b81526004018080602001828103825260268152602001806121b46026913960400191505060405180910390fd5b610f538a8a611fbb565b610f5f86868a8a611b2c565b8115610f8f57600854610f8b906001600160701b0380821691600160701b90041663ffffffff611a7916565b600b555b6040805185815260208101859052815133927f4c209b5fc8ad50758f13e2e1088ba56a560dff690a1c6fef26394f4c03821c4f928290030190a250506001600c5550949695505050505050565b60016020526000908152604090205481565b600b5481565b60046020526000908152604090205481565b600080600c54600114611052576040805162461bcd60e51b815260206004820152600f60248201526e13585d195c9a584e881313d0d2d151608a1b604482015290519081900360640190fd5b6000600c81905580611062610b31565b50600654600754604080516370a0823160e01b815230600482015290519496509294506001600160a01b039182169391169160009184916370a08231916024808301926020929190829003018186803b1580156110be57600080fd5b505afa1580156110d2573d6000803e3d6000fd5b505050506040513d60208110156110e857600080fd5b5051604080516370a0823160e01b815230600482015290519192506000916001600160a01b038516916370a08231916024808301926020929190829003018186803b15801561113657600080fd5b505afa15801561114a573d6000803e3d6000fd5b505050506040513d602081101561116057600080fd5b50513060009081526001602052604081205491925061117f8888611e0b565b60005490915080611196848763ffffffff611a7916565b8161119d57fe5b049a50806111b1848663ffffffff611a7916565b816111b857fe5b04995060008b1180156111cb575060008a115b6112065760405162461bcd60e51b815260040180806020018281038252602681526020018061218e6026913960400191505060405180910390fd5b6112103084612069565b61121b878d8d6118df565b611226868d8c6118df565b604080516370a0823160e01b815230600482015290516001600160a01b038916916370a08231916024808301926020929190829003018186803b15801561126c57600080fd5b505afa158015611280573d6000803e3d6000fd5b505050506040513d602081101561129657600080fd5b5051604080516370a0823160e01b815230600482015290519196506001600160a01b038816916370a0823191602480820192602092909190829003018186803b1580156112e257600080fd5b505afa1580156112f6573d6000803e3d6000fd5b505050506040513d602081101561130c57600080fd5b5051935061131c85858b8b611b2c565b811561134c57600854611348906001600160701b0380821691600160701b90041663ffffffff611a7916565b600b555b604080518c8152602081018c905281516001600160a01b038f169233927fdccd412f0b1252819cb1fd330b93224ca42612892bb3f4f789976e6d81936496929081900390910190a35050505050505050506001600c81905550915091565b6040518060400160405280600281526020016104d560f41b81525081565b6000610b68338484611d51565b6103e881565b600c54600114611424576040805162461bcd60e51b815260206004820152600f60248201526e13585d195c9a584e881313d0d2d151608a1b604482015290519081900360640190fd5b6000600c55600654600754600854604080516370a0823160e01b815230600482015290516001600160a01b0394851694909316926114d392859287926114ce926001600160701b03169185916370a0823191602480820192602092909190829003018186803b15801561149657600080fd5b505afa1580156114aa573d6000803e3d6000fd5b505050506040513d60208110156114c057600080fd5b50519063ffffffff611adc16565b6118df565b600854604080516370a0823160e01b8152306004820152905161153a92849287926114ce92600160701b90046001600160701b0316916001600160a01b038616916370a0823191602480820192602092909190829003018186803b15801561149657600080fd5b50506001600c5550565b6005546001600160a01b031681565b6007546001600160a01b031681565b428410156115aa576040805162461bcd60e51b815260206004820152601060248201526f13585d195c9a584e881156141254915160821b604482015290519081900360640190fd5b6003546001600160a01b0380891660008181526004602090815260408083208054600180820190925582517f6e71edae12b1b97f4d1f60370fef10105fa2faae0126114a169c64845d6126c98186015280840196909652958d166060860152608085018c905260a085019590955260c08085018b90528151808603909101815260e08501825280519083012061190160f01b6101008601526101028501969096526101228085019690965280518085039096018652610142840180825286519683019690962095839052610162840180825286905260ff89166101828501526101a284018890526101c28401879052519193926101e280820193601f1981019281900390910190855afa1580156116c5573d6000803e3d6000fd5b5050604051601f1901519150506001600160a01b038116158015906116fb5750886001600160a01b0316816001600160a01b0316145b61174c576040805162461bcd60e51b815260206004820152601a60248201527f4d6174657269613a20494e56414c49445f5349474e4154555245000000000000604482015290519081900360640190fd5b611757898989611cef565b505050505050505050565b600260209081526000928352604080842090915290825290205481565b600c546001146117c8576040805162461bcd60e51b815260206004820152600f60248201526e13585d195c9a584e881313d0d2d151608a1b604482015290519081900360640190fd5b6000600c55600654604080516370a0823160e01b815230600482015290516118d8926001600160a01b0316916370a08231916024808301926020929190829003018186803b15801561181957600080fd5b505afa15801561182d573d6000803e3d6000fd5b505050506040513d602081101561184357600080fd5b5051600754604080516370a0823160e01b815230600482015290516001600160a01b03909216916370a0823191602480820192602092909190829003018186803b15801561189057600080fd5b505afa1580156118a4573d6000803e3d6000fd5b505050506040513d60208110156118ba57600080fd5b50516008546001600160701b0380821691600160701b900416611b2c565b6001600c55565b604080518082018252601981527f7472616e7366657228616464726573732c75696e74323536290000000000000060209182015281516001600160a01b0385811660248301526044808301869052845180840390910181526064909201845291810180516001600160e01b031663a9059cbb60e01b1781529251815160009460609489169392918291908083835b6020831061198c5780518252601f19909201916020918201910161196d565b6001836020036101000a0380198251168184511680821785525050505050509050019150506000604051808303816000865af19150503d80600081146119ee576040519150601f19603f3d011682016040523d82523d6000602084013e6119f3565b606091505b5091509150818015611a21575080511580611a215750808060200190516020811015611a1e57600080fd5b50515b611a72576040805162461bcd60e51b815260206004820152601860248201527f4d6174657269613a205452414e534645525f4641494c45440000000000000000604482015290519081900360640190fd5b5050505050565b6000811580611a9457505080820282828281611a9157fe5b04145b610b6c576040805162461bcd60e51b815260206004820152601460248201527364732d6d6174682d6d756c2d6f766572666c6f7760601b604482015290519081900360640190fd5b80820382811115610b6c576040805162461bcd60e51b815260206004820152601560248201527464732d6d6174682d7375622d756e646572666c6f7760581b604482015290519081900360640190fd5b6001600160701b038411801590611b4a57506001600160701b038311155b611b8f576040805162461bcd60e51b81526020600482015260116024820152704d6174657269613a204f564552464c4f5760781b604482015290519081900360640190fd5b60085463ffffffff42811691600160e01b90048116820390811615801590611bbf57506001600160701b03841615155b8015611bd357506001600160701b03831615155b15611c44578063ffffffff16611c0185611bec86612107565b6001600160e01b03169063ffffffff61211916565b600980546001600160e01b03929092169290920201905563ffffffff8116611c2c84611bec87612107565b600a80546001600160e01b0392909216929092020190555b600880546dffffffffffffffffffffffffffff19166001600160701b03888116919091176dffffffffffffffffffffffffffff60701b1916600160701b8883168102919091176001600160e01b0316600160e01b63ffffffff871602179283905560408051848416815291909304909116602082015281517f1c411e9a96e071241c2f21f7726b17ae89e3cab4c78be50e062b03a9fffbbad1929181900390910190a1505050505050565b6001600160a01b03808416600081815260026020908152604080832094871680845294825291829020859055815185815291517f8c5be1e5ebec7d5bd14f71427d1e84f3dd0314c0f7b2291e5b200ac8c7c3b9259281900390910190a3505050565b6001600160a01b038316600090815260016020526040902054611d7a908263ffffffff611adc16565b6001600160a01b038085166000908152600160205260408082209390935590841681522054611daf908263ffffffff61213e16565b6001600160a01b0380841660008181526001602090815260409182902094909455805185815290519193928716927fddf252ad1be2c89b69c2b068fc378daa952ba7f163c4a11628f55a4df523b3ef92918290030190a3505050565b600080600560009054906101000a90046001600160a01b03166001600160a01b031663017e7e586040518163ffffffff1660e01b815260040160206040518083038186803b158015611e5c57600080fd5b505afa158015611e70573d6000803e3d6000fd5b505050506040513d6020811015611e8657600080fd5b5051600b546001600160a01b038216158015945091925090611f55578015611f50576000611ec9610ea26001600160701b0388811690881663ffffffff611a7916565b90506000611ed683611f69565b905080821115611f4d576000611f04611ef5848463ffffffff611adc16565b6000549063ffffffff611a7916565b90506000611f2983611f1d86600563ffffffff611a7916565b9063ffffffff61213e16565b90506000818381611f3657fe5b0490508015611f4957611f498782611fbb565b5050505b50505b611f61565b8015611f61576000600b555b505092915050565b60006003821115611fac575080600160028204015b81811015611fa657809150600281828581611f9557fe5b040181611f9e57fe5b049050611f7e565b50611fb6565b8115611fb6575060015b919050565b600054611fce908263ffffffff61213e16565b60009081556001600160a01b038316815260016020526040902054611ff9908263ffffffff61213e16565b6001600160a01b03831660008181526001602090815260408083209490945583518581529351929391927fddf252ad1be2c89b69c2b068fc378daa952ba7f163c4a11628f55a4df523b3ef9281900390910190a35050565b60008183106120605781612062565b825b9392505050565b6001600160a01b038216600090815260016020526040902054612092908263ffffffff611adc16565b6001600160a01b038316600090815260016020526040812091909155546120bf908263ffffffff611adc16565b60009081556040805183815290516001600160a01b038516917fddf252ad1be2c89b69c2b068fc378daa952ba7f163c4a11628f55a4df523b3ef919081900360200190a35050565b6001600160701b0316600160701b0290565b60006001600160701b0382166001600160e01b0384168161213657fe5b049392505050565b80820182811015610b6c576040805162461bcd60e51b815260206004820152601460248201527364732d6d6174682d6164642d6f766572666c6f7760601b604482015290519081900360640190fdfe4d6174657269613a20494e53554646494349454e545f4c49515549444954595f4255524e45444d6174657269613a20494e53554646494349454e545f4c49515549444954595f4d494e5445444d6174657269613a20494e53554646494349454e545f4f55545055545f414d4f554e544d6174657269613a20494e53554646494349454e545f494e5055545f414d4f554e54a265627a7a72315820593818008e7e1d1e833cfbde89f53bd3ed132ec35d5971a797fefc214a00c51764736f6c63430005100032454950373132446f6d61696e28737472696e67206e616d652c737472696e672076657273696f6e2c75696e7432353620636861696e49642c6164647265737320766572696679696e67436f6e7472616374294d6174657269613a204d5553545f42455f43414c4c45445f42595f524f55544552a265627a7a723158203d80983d7e5824266237c316ca3ca8b663986ed455daa8f234e3abaef090cdbd64736f6c63430005100032",
			"opcodes": "PUSH1 0x80 PUSH1 0x40 MSTORE CALLVALUE DUP1 ISZERO PUSH2 0x10 JUMPI PUSH1 0x0 DUP1 REVERT JUMPDEST POP PUSH1 0x2 DUP1 SLOAD PUSH1 0xFF PUSH1 0xA0 SHL NOT AND SWAP1 SSTORE PUSH2 0x2E2B DUP1 PUSH2 0x2D PUSH1 0x0 CODECOPY PUSH1 0x0 RETURN INVALID PUSH1 0x80 PUSH1 0x40 MSTORE CALLVALUE DUP1 ISZERO PUSH2 0x10 JUMPI PUSH1 0x0 DUP1 REVERT JUMPDEST POP PUSH1 0x4 CALLDATASIZE LT PUSH2 0xCF JUMPI PUSH1 0x0 CALLDATALOAD PUSH1 0xE0 SHR DUP1 PUSH4 0xA2E74AF6 GT PUSH2 0x8C JUMPI DUP1 PUSH4 0xC9C65396 GT PUSH2 0x66 JUMPI DUP1 PUSH4 0xC9C65396 EQ PUSH2 0x1E6 JUMPI DUP1 PUSH4 0xE6A43905 EQ PUSH2 0x214 JUMPI DUP1 PUSH4 0xF46901ED EQ PUSH2 0x242 JUMPI DUP1 PUSH4 0xF887EA40 EQ PUSH2 0x268 JUMPI PUSH2 0xCF JUMP JUMPDEST DUP1 PUSH4 0xA2E74AF6 EQ PUSH2 0x17B JUMPI DUP1 PUSH4 0xBE32B3F8 EQ PUSH2 0x1A1 JUMPI DUP1 PUSH4 0xC0D78655 EQ PUSH2 0x1C0 JUMPI PUSH2 0xCF JUMP JUMPDEST DUP1 PUSH4 0x17E7E58 EQ PUSH2 0xD4 JUMPI DUP1 PUSH4 0x905F560 EQ PUSH2 0xF8 JUMPI DUP1 PUSH4 0x94B7415 EQ PUSH2 0x114 JUMPI DUP1 PUSH4 0x19AB453C EQ PUSH2 0x11C JUMPI DUP1 PUSH4 0x1E3DD18B EQ PUSH2 0x144 JUMPI DUP1 PUSH4 0x574F2BA3 EQ PUSH2 0x161 JUMPI JUMPDEST PUSH1 0x0 DUP1 REVERT JUMPDEST PUSH2 0xDC PUSH2 0x270 JUMP JUMPDEST PUSH1 0x40 DUP1 MLOAD PUSH1 0x1 PUSH1 0x1 PUSH1 0xA0 SHL SUB SWAP1 SWAP3 AND DUP3 MSTORE MLOAD SWAP1 DUP2 SWAP1 SUB PUSH1 0x20 ADD SWAP1 RETURN JUMPDEST PUSH2 0x100 PUSH2 0x27F JUMP JUMPDEST PUSH1 0x40 DUP1 MLOAD SWAP2 ISZERO ISZERO DUP3 MSTORE MLOAD SWAP1 DUP2 SWAP1 SUB PUSH1 0x20 ADD SWAP1 RETURN JUMPDEST PUSH2 0xDC PUSH2 0x28F JUMP JUMPDEST PUSH2 0x142 PUSH1 0x4 DUP1 CALLDATASIZE SUB PUSH1 0x20 DUP2 LT ISZERO PUSH2 0x132 JUMPI PUSH1 0x0 DUP1 REVERT JUMPDEST POP CALLDATALOAD PUSH1 0x1 PUSH1 0x1 PUSH1 0xA0 SHL SUB AND PUSH2 0x29E JUMP JUMPDEST STOP JUMPDEST PUSH2 0xDC PUSH1 0x4 DUP1 CALLDATASIZE SUB PUSH1 0x20 DUP2 LT ISZERO PUSH2 0x15A JUMPI PUSH1 0x0 DUP1 REVERT JUMPDEST POP CALLDATALOAD PUSH2 0x32C JUMP JUMPDEST PUSH2 0x169 PUSH2 0x353 JUMP JUMPDEST PUSH1 0x40 DUP1 MLOAD SWAP2 DUP3 MSTORE MLOAD SWAP1 DUP2 SWAP1 SUB PUSH1 0x20 ADD SWAP1 RETURN JUMPDEST PUSH2 0x142 PUSH1 0x4 DUP1 CALLDATASIZE SUB PUSH1 0x20 DUP2 LT ISZERO PUSH2 0x191 JUMPI PUSH1 0x0 DUP1 REVERT JUMPDEST POP CALLDATALOAD PUSH1 0x1 PUSH1 0x1 PUSH1 0xA0 SHL SUB AND PUSH2 0x359 JUMP JUMPDEST PUSH2 0x142 PUSH1 0x4 DUP1 CALLDATASIZE SUB PUSH1 0x20 DUP2 LT ISZERO PUSH2 0x1B7 JUMPI PUSH1 0x0 DUP1 REVERT JUMPDEST POP CALLDATALOAD ISZERO ISZERO PUSH2 0x428 JUMP JUMPDEST PUSH2 0x142 PUSH1 0x4 DUP1 CALLDATASIZE SUB PUSH1 0x20 DUP2 LT ISZERO PUSH2 0x1D6 JUMPI PUSH1 0x0 DUP1 REVERT JUMPDEST POP CALLDATALOAD PUSH1 0x1 PUSH1 0x1 PUSH1 0xA0 SHL SUB AND PUSH2 0x48F JUMP JUMPDEST PUSH2 0xDC PUSH1 0x4 DUP1 CALLDATASIZE SUB PUSH1 0x40 DUP2 LT ISZERO PUSH2 0x1FC JUMPI PUSH1 0x0 DUP1 REVERT JUMPDEST POP PUSH1 0x1 PUSH1 0x1 PUSH1 0xA0 SHL SUB DUP2 CALLDATALOAD DUP2 AND SWAP2 PUSH1 0x20 ADD CALLDATALOAD AND PUSH2 0x553 JUMP JUMPDEST PUSH2 0xDC PUSH1 0x4 DUP1 CALLDATASIZE SUB PUSH1 0x40 DUP2 LT ISZERO PUSH2 0x22A JUMPI PUSH1 0x0 DUP1 REVERT JUMPDEST POP PUSH1 0x1 PUSH1 0x1 PUSH1 0xA0 SHL SUB DUP2 CALLDATALOAD DUP2 AND SWAP2 PUSH1 0x20 ADD CALLDATALOAD AND PUSH2 0x91D JUMP JUMPDEST PUSH2 0x142 PUSH1 0x4 DUP1 CALLDATASIZE SUB PUSH1 0x20 DUP2 LT ISZERO PUSH2 0x258 JUMPI PUSH1 0x0 DUP1 REVERT JUMPDEST POP CALLDATALOAD PUSH1 0x1 PUSH1 0x1 PUSH1 0xA0 SHL SUB AND PUSH2 0x943 JUMP JUMPDEST PUSH2 0xDC PUSH2 0xA12 JUMP JUMPDEST PUSH1 0x0 SLOAD PUSH1 0x1 PUSH1 0x1 PUSH1 0xA0 SHL SUB AND DUP2 JUMP JUMPDEST PUSH1 0x2 SLOAD PUSH1 0x1 PUSH1 0xA0 SHL SWAP1 DIV PUSH1 0xFF AND DUP2 JUMP JUMPDEST PUSH1 0x1 SLOAD PUSH1 0x1 PUSH1 0x1 PUSH1 0xA0 SHL SUB AND DUP2 JUMP JUMPDEST PUSH1 0x2 SLOAD PUSH1 0x1 PUSH1 0x1 PUSH1 0xA0 SHL SUB AND ISZERO PUSH2 0x2FC JUMPI PUSH1 0x40 DUP1 MLOAD PUSH3 0x461BCD PUSH1 0xE5 SHL DUP2 MSTORE PUSH1 0x20 PUSH1 0x4 DUP3 ADD MSTORE PUSH1 0x1C PUSH1 0x24 DUP3 ADD MSTORE PUSH32 0x4D6174657269613A20494E49545F414C52454144595F43414C4C454400000000 PUSH1 0x44 DUP3 ADD MSTORE SWAP1 MLOAD SWAP1 DUP2 SWAP1 SUB PUSH1 0x64 ADD SWAP1 REVERT JUMPDEST PUSH1 0x2 DUP1 SLOAD CALLER PUSH1 0x1 PUSH1 0x1 PUSH1 0xA0 SHL SUB NOT SWAP2 DUP3 AND OR SWAP1 SWAP2 SSTORE PUSH1 0x1 DUP1 SLOAD SWAP1 SWAP2 AND PUSH1 0x1 PUSH1 0x1 PUSH1 0xA0 SHL SUB SWAP3 SWAP1 SWAP3 AND SWAP2 SWAP1 SWAP2 OR SWAP1 SSTORE JUMP JUMPDEST PUSH1 0x4 DUP2 DUP2 SLOAD DUP2 LT PUSH2 0x339 JUMPI INVALID JUMPDEST PUSH1 0x0 SWAP2 DUP3 MSTORE PUSH1 0x20 SWAP1 SWAP2 KECCAK256 ADD SLOAD PUSH1 0x1 PUSH1 0x1 PUSH1 0xA0 SHL SUB AND SWAP1 POP DUP2 JUMP JUMPDEST PUSH1 0x4 SLOAD SWAP1 JUMP JUMPDEST PUSH1 0x2 SLOAD PUSH1 0x1 PUSH1 0xA0 SHL SWAP1 DIV PUSH1 0xFF AND ISZERO PUSH2 0x3B2 JUMPI PUSH1 0x40 DUP1 MLOAD PUSH3 0x461BCD PUSH1 0xE5 SHL DUP2 MSTORE PUSH1 0x20 PUSH1 0x4 DUP3 ADD MSTORE PUSH1 0x17 PUSH1 0x24 DUP3 ADD MSTORE PUSH23 0x4D6174657269613A20454D455247454E43595F4D4F4445 PUSH1 0x48 SHL PUSH1 0x44 DUP3 ADD MSTORE SWAP1 MLOAD SWAP1 DUP2 SWAP1 SUB PUSH1 0x64 ADD SWAP1 REVERT JUMPDEST PUSH1 0x1 SLOAD PUSH1 0x1 PUSH1 0x1 PUSH1 0xA0 SHL SUB AND CALLER EQ PUSH2 0x406 JUMPI PUSH1 0x40 DUP1 MLOAD PUSH3 0x461BCD PUSH1 0xE5 SHL DUP2 MSTORE PUSH1 0x20 PUSH1 0x4 DUP3 ADD MSTORE PUSH1 0x12 PUSH1 0x24 DUP3 ADD MSTORE PUSH18 0x26B0BA32B934B09D102327A92124A22222A7 PUSH1 0x71 SHL PUSH1 0x44 DUP3 ADD MSTORE SWAP1 MLOAD SWAP1 DUP2 SWAP1 SUB PUSH1 0x64 ADD SWAP1 REVERT JUMPDEST PUSH1 0x1 DUP1 SLOAD PUSH1 0x1 PUSH1 0x1 PUSH1 0xA0 SHL SUB NOT AND PUSH1 0x1 PUSH1 0x1 PUSH1 0xA0 SHL SUB SWAP3 SWAP1 SWAP3 AND SWAP2 SWAP1 SWAP2 OR SWAP1 SSTORE JUMP JUMPDEST PUSH1 0x2 SLOAD PUSH1 0x1 PUSH1 0x1 PUSH1 0xA0 SHL SUB AND CALLER EQ PUSH2 0x471 JUMPI PUSH1 0x40 MLOAD PUSH3 0x461BCD PUSH1 0xE5 SHL DUP2 MSTORE PUSH1 0x4 ADD DUP1 DUP1 PUSH1 0x20 ADD DUP3 DUP2 SUB DUP3 MSTORE PUSH1 0x21 DUP2 MSTORE PUSH1 0x20 ADD DUP1 PUSH2 0x2DD6 PUSH1 0x21 SWAP2 CODECOPY PUSH1 0x40 ADD SWAP2 POP POP PUSH1 0x40 MLOAD DUP1 SWAP2 SUB SWAP1 REVERT JUMPDEST PUSH1 0x2 DUP1 SLOAD SWAP2 ISZERO ISZERO PUSH1 0x1 PUSH1 0xA0 SHL MUL PUSH1 0xFF PUSH1 0xA0 SHL NOT SWAP1 SWAP3 AND SWAP2 SWAP1 SWAP2 OR SWAP1 SSTORE JUMP JUMPDEST PUSH1 0x2 SLOAD PUSH1 0x1 PUSH1 0x1 PUSH1 0xA0 SHL SUB AND CALLER EQ PUSH2 0x4D8 JUMPI PUSH1 0x40 MLOAD PUSH3 0x461BCD PUSH1 0xE5 SHL DUP2 MSTORE PUSH1 0x4 ADD DUP1 DUP1 PUSH1 0x20 ADD DUP3 DUP2 SUB DUP3 MSTORE PUSH1 0x21 DUP2 MSTORE PUSH1 0x20 ADD DUP1 PUSH2 0x2DD6 PUSH1 0x21 SWAP2 CODECOPY PUSH1 0x40 ADD SWAP2 POP POP PUSH1 0x40 MLOAD DUP1 SWAP2 SUB SWAP1 REVERT JUMPDEST PUSH1 0x2 SLOAD PUSH1 0x1 PUSH1 0xA0 SHL SWAP1 DIV PUSH1 0xFF AND ISZERO PUSH2 0x531 JUMPI PUSH1 0x40 DUP1 MLOAD PUSH3 0x461BCD PUSH1 0xE5 SHL DUP2 MSTORE PUSH1 0x20 PUSH1 0x4 DUP3 ADD MSTORE PUSH1 0x17 PUSH1 0x24 DUP3 ADD MSTORE PUSH23 0x4D6174657269613A20454D455247454E43595F4D4F4445 PUSH1 0x48 SHL PUSH1 0x44 DUP3 ADD MSTORE SWAP1 MLOAD SWAP1 DUP2 SWAP1 SUB PUSH1 0x64 ADD SWAP1 REVERT JUMPDEST PUSH1 0x2 DUP1 SLOAD PUSH1 0x1 PUSH1 0x1 PUSH1 0xA0 SHL SUB NOT AND PUSH1 0x1 PUSH1 0x1 PUSH1 0xA0 SHL SUB SWAP3 SWAP1 SWAP3 AND SWAP2 SWAP1 SWAP2 OR SWAP1 SSTORE JUMP JUMPDEST PUSH1 0x2 SLOAD PUSH1 0x0 SWAP1 PUSH1 0x1 PUSH1 0x1 PUSH1 0xA0 SHL SUB AND CALLER EQ PUSH2 0x59F JUMPI PUSH1 0x40 MLOAD PUSH3 0x461BCD PUSH1 0xE5 SHL DUP2 MSTORE PUSH1 0x4 ADD DUP1 DUP1 PUSH1 0x20 ADD DUP3 DUP2 SUB DUP3 MSTORE PUSH1 0x21 DUP2 MSTORE PUSH1 0x20 ADD DUP1 PUSH2 0x2DD6 PUSH1 0x21 SWAP2 CODECOPY PUSH1 0x40 ADD SWAP2 POP POP PUSH1 0x40 MLOAD DUP1 SWAP2 SUB SWAP1 REVERT JUMPDEST PUSH1 0x2 SLOAD PUSH1 0x1 PUSH1 0xA0 SHL SWAP1 DIV PUSH1 0xFF AND ISZERO PUSH2 0x5F8 JUMPI PUSH1 0x40 DUP1 MLOAD PUSH3 0x461BCD PUSH1 0xE5 SHL DUP2 MSTORE PUSH1 0x20 PUSH1 0x4 DUP3 ADD MSTORE PUSH1 0x17 PUSH1 0x24 DUP3 ADD MSTORE PUSH23 0x4D6174657269613A20454D455247454E43595F4D4F4445 PUSH1 0x48 SHL PUSH1 0x44 DUP3 ADD MSTORE SWAP1 MLOAD SWAP1 DUP2 SWAP1 SUB PUSH1 0x64 ADD SWAP1 REVERT JUMPDEST DUP2 PUSH1 0x1 PUSH1 0x1 PUSH1 0xA0 SHL SUB AND DUP4 PUSH1 0x1 PUSH1 0x1 PUSH1 0xA0 SHL SUB AND EQ ISZERO PUSH2 0x65F JUMPI PUSH1 0x40 DUP1 MLOAD PUSH3 0x461BCD PUSH1 0xE5 SHL DUP2 MSTORE PUSH1 0x20 PUSH1 0x4 DUP3 ADD MSTORE PUSH1 0x1C PUSH1 0x24 DUP3 ADD MSTORE PUSH32 0x4D6174657269613A204944454E544943414C5F41444452455353455300000000 PUSH1 0x44 DUP3 ADD MSTORE SWAP1 MLOAD SWAP1 DUP2 SWAP1 SUB PUSH1 0x64 ADD SWAP1 REVERT JUMPDEST PUSH1 0x0 DUP1 DUP4 PUSH1 0x1 PUSH1 0x1 PUSH1 0xA0 SHL SUB AND DUP6 PUSH1 0x1 PUSH1 0x1 PUSH1 0xA0 SHL SUB AND LT PUSH2 0x682 JUMPI DUP4 DUP6 PUSH2 0x685 JUMP JUMPDEST DUP5 DUP5 JUMPDEST SWAP1 SWAP3 POP SWAP1 POP PUSH1 0x1 PUSH1 0x1 PUSH1 0xA0 SHL SUB DUP3 AND PUSH2 0x6DD JUMPI PUSH1 0x40 DUP1 MLOAD PUSH3 0x461BCD PUSH1 0xE5 SHL DUP2 MSTORE PUSH1 0x20 PUSH1 0x4 DUP3 ADD MSTORE PUSH1 0x15 PUSH1 0x24 DUP3 ADD MSTORE PUSH21 0x4D6174657269613A205A45524F5F41444452455353 PUSH1 0x58 SHL PUSH1 0x44 DUP3 ADD MSTORE SWAP1 MLOAD SWAP1 DUP2 SWAP1 SUB PUSH1 0x64 ADD SWAP1 REVERT JUMPDEST PUSH1 0x1 PUSH1 0x1 PUSH1 0xA0 SHL SUB DUP3 DUP2 AND PUSH1 0x0 SWAP1 DUP2 MSTORE PUSH1 0x3 PUSH1 0x20 SWAP1 DUP2 MSTORE PUSH1 0x40 DUP1 DUP4 KECCAK256 DUP6 DUP6 AND DUP5 MSTORE SWAP1 SWAP2 MSTORE SWAP1 KECCAK256 SLOAD AND ISZERO PUSH2 0x74E JUMPI PUSH1 0x40 DUP1 MLOAD PUSH3 0x461BCD PUSH1 0xE5 SHL DUP2 MSTORE PUSH1 0x20 PUSH1 0x4 DUP3 ADD MSTORE PUSH1 0x14 PUSH1 0x24 DUP3 ADD MSTORE PUSH20 0x4D6174657269613A20504149525F455849535453 PUSH1 0x60 SHL PUSH1 0x44 DUP3 ADD MSTORE SWAP1 MLOAD SWAP1 DUP2 SWAP1 SUB PUSH1 0x64 ADD SWAP1 REVERT JUMPDEST PUSH1 0x60 PUSH1 0x40 MLOAD DUP1 PUSH1 0x20 ADD PUSH2 0x760 SWAP1 PUSH2 0xA21 JUMP JUMPDEST PUSH1 0x20 DUP3 ADD DUP2 SUB DUP3 MSTORE PUSH1 0x1F NOT PUSH1 0x1F DUP3 ADD AND PUSH1 0x40 MSTORE POP SWAP1 POP PUSH1 0x0 DUP4 DUP4 PUSH1 0x40 MLOAD PUSH1 0x20 ADD DUP1 DUP4 PUSH1 0x1 PUSH1 0x1 PUSH1 0xA0 SHL SUB AND PUSH1 0x1 PUSH1 0x1 PUSH1 0xA0 SHL SUB AND PUSH1 0x60 SHL DUP2 MSTORE PUSH1 0x14 ADD DUP3 PUSH1 0x1 PUSH1 0x1 PUSH1 0xA0 SHL SUB AND PUSH1 0x1 PUSH1 0x1 PUSH1 0xA0 SHL SUB AND PUSH1 0x60 SHL DUP2 MSTORE PUSH1 0x14 ADD SWAP3 POP POP POP PUSH1 0x40 MLOAD PUSH1 0x20 DUP2 DUP4 SUB SUB DUP2 MSTORE SWAP1 PUSH1 0x40 MSTORE DUP1 MLOAD SWAP1 PUSH1 0x20 ADD KECCAK256 SWAP1 POP DUP1 DUP3 MLOAD PUSH1 0x20 DUP5 ADD PUSH1 0x0 CREATE2 PUSH1 0x40 DUP1 MLOAD PUSH4 0x485CC955 PUSH1 0xE0 SHL DUP2 MSTORE PUSH1 0x1 PUSH1 0x1 PUSH1 0xA0 SHL SUB DUP8 DUP2 AND PUSH1 0x4 DUP4 ADD MSTORE DUP7 DUP2 AND PUSH1 0x24 DUP4 ADD MSTORE SWAP2 MLOAD SWAP3 SWAP8 POP SWAP1 DUP8 AND SWAP2 PUSH4 0x485CC955 SWAP2 PUSH1 0x44 DUP1 DUP3 ADD SWAP3 PUSH1 0x0 SWAP3 SWAP1 SWAP2 SWAP1 DUP3 SWAP1 SUB ADD DUP2 DUP4 DUP8 DUP1 EXTCODESIZE ISZERO DUP1 ISZERO PUSH2 0x833 JUMPI PUSH1 0x0 DUP1 REVERT JUMPDEST POP GAS CALL ISZERO DUP1 ISZERO PUSH2 0x847 JUMPI RETURNDATASIZE PUSH1 0x0 DUP1 RETURNDATACOPY RETURNDATASIZE PUSH1 0x0 REVERT JUMPDEST POP POP POP POP PUSH1 0x1 PUSH1 0x1 PUSH1 0xA0 SHL SUB DUP5 DUP2 AND PUSH1 0x0 DUP2 DUP2 MSTORE PUSH1 0x3 PUSH1 0x20 DUP2 DUP2 MSTORE PUSH1 0x40 DUP1 DUP5 KECCAK256 DUP10 DUP8 AND DUP1 DUP7 MSTORE SWAP1 DUP4 MSTORE DUP2 DUP6 KECCAK256 DUP1 SLOAD SWAP8 DUP14 AND PUSH1 0x1 PUSH1 0x1 PUSH1 0xA0 SHL SUB NOT SWAP9 DUP10 AND DUP2 OR SWAP1 SWAP2 SSTORE SWAP4 DUP4 MSTORE DUP2 DUP6 KECCAK256 DUP7 DUP7 MSTORE DUP4 MSTORE DUP2 DUP6 KECCAK256 DUP1 SLOAD DUP9 AND DUP6 OR SWAP1 SSTORE PUSH1 0x4 DUP1 SLOAD PUSH1 0x1 DUP2 ADD DUP3 SSTORE SWAP6 DUP2 SWAP1 MSTORE PUSH32 0x8A35ACFBC15FF81A39AE7D344FD709F28E8600B4AA8C65C6B64BFE7FE36BD19B SWAP1 SWAP6 ADD DUP1 SLOAD SWAP1 SWAP8 AND DUP5 OR SWAP1 SWAP7 SSTORE SWAP3 SLOAD DUP4 MLOAD SWAP3 DUP4 MSTORE SWAP1 DUP3 ADD MSTORE DUP2 MLOAD PUSH32 0xD3648BD0F6BA80134A33BA9275AC585D9D315F0AD8355CDDEFDE31AFA28D0E9 SWAP3 SWAP2 DUP2 SWAP1 SUB SWAP1 SWAP2 ADD SWAP1 LOG3 POP POP POP POP SWAP3 SWAP2 POP POP JUMP JUMPDEST PUSH1 0x3 PUSH1 0x20 SWAP1 DUP2 MSTORE PUSH1 0x0 SWAP3 DUP4 MSTORE PUSH1 0x40 DUP1 DUP5 KECCAK256 SWAP1 SWAP2 MSTORE SWAP1 DUP3 MSTORE SWAP1 KECCAK256 SLOAD PUSH1 0x1 PUSH1 0x1 PUSH1 0xA0 SHL SUB AND DUP2 JUMP JUMPDEST PUSH1 0x2 SLOAD PUSH1 0x1 PUSH1 0xA0 SHL SWAP1 DIV PUSH1 0xFF AND ISZERO PUSH2 0x99C JUMPI PUSH1 0x40 DUP1 MLOAD PUSH3 0x461BCD PUSH1 0xE5 SHL DUP2 MSTORE PUSH1 0x20 PUSH1 0x4 DUP3 ADD MSTORE PUSH1 0x17 PUSH1 0x24 DUP3 ADD MSTORE PUSH23 0x4D6174657269613A20454D455247454E43595F4D4F4445 PUSH1 0x48 SHL PUSH1 0x44 DUP3 ADD MSTORE SWAP1 MLOAD SWAP1 DUP2 SWAP1 SUB PUSH1 0x64 ADD SWAP1 REVERT JUMPDEST PUSH1 0x1 SLOAD PUSH1 0x1 PUSH1 0x1 PUSH1 0xA0 SHL SUB AND CALLER EQ PUSH2 0x9F0 JUMPI PUSH1 0x40 DUP1 MLOAD PUSH3 0x461BCD PUSH1 0xE5 SHL DUP2 MSTORE PUSH1 0x20 PUSH1 0x4 DUP3 ADD MSTORE PUSH1 0x12 PUSH1 0x24 DUP3 ADD MSTORE PUSH18 0x26B0BA32B934B09D102327A92124A22222A7 PUSH1 0x71 SHL PUSH1 0x44 DUP3 ADD MSTORE SWAP1 MLOAD SWAP1 DUP2 SWAP1 SUB PUSH1 0x64 ADD SWAP1 REVERT JUMPDEST PUSH1 0x0 DUP1 SLOAD PUSH1 0x1 PUSH1 0x1 PUSH1 0xA0 SHL SUB NOT AND PUSH1 0x1 PUSH1 0x1 PUSH1 0xA0 SHL SUB SWAP3 SWAP1 SWAP3 AND SWAP2 SWAP1 SWAP2 OR SWAP1 SSTORE JUMP JUMPDEST PUSH1 0x2 SLOAD PUSH1 0x1 PUSH1 0x1 PUSH1 0xA0 SHL SUB AND DUP2 JUMP JUMPDEST PUSH2 0x23A7 DUP1 PUSH2 0xA2F DUP4 CODECOPY ADD SWAP1 JUMP INVALID PUSH1 0x80 PUSH1 0x40 MSTORE PUSH1 0x1 PUSH1 0xC SSTORE CALLVALUE DUP1 ISZERO PUSH2 0x15 JUMPI PUSH1 0x0 DUP1 REVERT JUMPDEST POP PUSH1 0x40 MLOAD CHAINID SWAP1 DUP1 PUSH1 0x52 PUSH2 0x2355 DUP3 CODECOPY PUSH1 0x40 DUP1 MLOAD SWAP2 DUP3 SWAP1 SUB PUSH1 0x52 ADD DUP3 KECCAK256 DUP3 DUP3 ADD DUP3 MSTORE PUSH1 0x7 DUP4 MSTORE PUSH7 0x4D617465726961 PUSH1 0xC8 SHL PUSH1 0x20 SWAP4 DUP5 ADD MSTORE DUP2 MLOAD DUP1 DUP4 ADD DUP4 MSTORE PUSH1 0x1 DUP2 MSTORE PUSH1 0x31 PUSH1 0xF8 SHL SWAP1 DUP5 ADD MSTORE DUP2 MLOAD DUP1 DUP5 ADD SWAP2 SWAP1 SWAP2 MSTORE PUSH32 0x2DE313BB38832044D8F9644A6B3B93FEB8059BBE48FCF5FEC0AF0BEDB4885C74 DUP2 DUP4 ADD MSTORE PUSH32 0xC89EFDAA54C0F20C7ADF612882DF0950F5A951637E0307CDCB4C672F298B8BC6 PUSH1 0x60 DUP3 ADD MSTORE PUSH1 0x80 DUP2 ADD SWAP5 SWAP1 SWAP5 MSTORE ADDRESS PUSH1 0xA0 DUP1 DUP7 ADD SWAP2 SWAP1 SWAP2 MSTORE DUP2 MLOAD DUP1 DUP7 SUB SWAP1 SWAP2 ADD DUP2 MSTORE PUSH1 0xC0 SWAP1 SWAP5 ADD SWAP1 MSTORE DUP3 MLOAD SWAP3 ADD SWAP2 SWAP1 SWAP2 KECCAK256 PUSH1 0x3 SSTORE POP PUSH1 0x5 DUP1 SLOAD PUSH1 0x1 PUSH1 0x1 PUSH1 0xA0 SHL SUB NOT AND CALLER OR SWAP1 SSTORE PUSH2 0x2253 DUP1 PUSH2 0x102 PUSH1 0x0 CODECOPY PUSH1 0x0 RETURN INVALID PUSH1 0x80 PUSH1 0x40 MSTORE CALLVALUE DUP1 ISZERO PUSH2 0x10 JUMPI PUSH1 0x0 DUP1 REVERT JUMPDEST POP PUSH1 0x4 CALLDATASIZE LT PUSH2 0x1A9 JUMPI PUSH1 0x0 CALLDATALOAD PUSH1 0xE0 SHR DUP1 PUSH4 0x6A627842 GT PUSH2 0xF9 JUMPI DUP1 PUSH4 0xBA9A7A56 GT PUSH2 0x97 JUMPI DUP1 PUSH4 0xD21220A7 GT PUSH2 0x71 JUMPI DUP1 PUSH4 0xD21220A7 EQ PUSH2 0x534 JUMPI DUP1 PUSH4 0xD505ACCF EQ PUSH2 0x53C JUMPI DUP1 PUSH4 0xDD62ED3E EQ PUSH2 0x58D JUMPI DUP1 PUSH4 0xFFF6CAE9 EQ PUSH2 0x5BB JUMPI PUSH2 0x1A9 JUMP JUMPDEST DUP1 PUSH4 0xBA9A7A56 EQ PUSH2 0x4FE JUMPI DUP1 PUSH4 0xBC25CF77 EQ PUSH2 0x506 JUMPI DUP1 PUSH4 0xC45A0155 EQ PUSH2 0x52C JUMPI PUSH2 0x1A9 JUMP JUMPDEST DUP1 PUSH4 0x7ECEBE00 GT PUSH2 0xD3 JUMPI DUP1 PUSH4 0x7ECEBE00 EQ PUSH2 0x465 JUMPI DUP1 PUSH4 0x89AFCB44 EQ PUSH2 0x48B JUMPI DUP1 PUSH4 0x95D89B41 EQ PUSH2 0x4CA JUMPI DUP1 PUSH4 0xA9059CBB EQ PUSH2 0x4D2 JUMPI PUSH2 0x1A9 JUMP JUMPDEST DUP1 PUSH4 0x6A627842 EQ PUSH2 0x411 JUMPI DUP1 PUSH4 0x70A08231 EQ PUSH2 0x437 JUMPI DUP1 PUSH4 0x7464FC3D EQ PUSH2 0x45D JUMPI PUSH2 0x1A9 JUMP JUMPDEST DUP1 PUSH4 0x23B872DD GT PUSH2 0x166 JUMPI DUP1 PUSH4 0x3644E515 GT PUSH2 0x140 JUMPI DUP1 PUSH4 0x3644E515 EQ PUSH2 0x3CB JUMPI DUP1 PUSH4 0x485CC955 EQ PUSH2 0x3D3 JUMPI DUP1 PUSH4 0x5909C0D5 EQ PUSH2 0x401 JUMPI DUP1 PUSH4 0x5A3D5493 EQ PUSH2 0x409 JUMPI PUSH2 0x1A9 JUMP JUMPDEST DUP1 PUSH4 0x23B872DD EQ PUSH2 0x36F JUMPI DUP1 PUSH4 0x30ADF81F EQ PUSH2 0x3A5 JUMPI DUP1 PUSH4 0x313CE567 EQ PUSH2 0x3AD JUMPI PUSH2 0x1A9 JUMP JUMPDEST DUP1 PUSH4 0x22C0D9F EQ PUSH2 0x1AE JUMPI DUP1 PUSH4 0x6FDDE03 EQ PUSH2 0x23C JUMPI DUP1 PUSH4 0x902F1AC EQ PUSH2 0x2B9 JUMPI DUP1 PUSH4 0x95EA7B3 EQ PUSH2 0x2F1 JUMPI DUP1 PUSH4 0xDFE1681 EQ PUSH2 0x331 JUMPI DUP1 PUSH4 0x18160DDD EQ PUSH2 0x355 JUMPI JUMPDEST PUSH1 0x0 DUP1 REVERT JUMPDEST PUSH2 0x23A PUSH1 0x4 DUP1 CALLDATASIZE SUB PUSH1 0x80 DUP2 LT ISZERO PUSH2 0x1C4 JUMPI PUSH1 0x0 DUP1 REVERT JUMPDEST DUP2 CALLDATALOAD SWAP2 PUSH1 0x20 DUP2 ADD CALLDATALOAD SWAP2 PUSH1 0x1 PUSH1 0x1 PUSH1 0xA0 SHL SUB PUSH1 0x40 DUP4 ADD CALLDATALOAD AND SWAP2 SWAP1 DUP2 ADD SWAP1 PUSH1 0x80 DUP2 ADD PUSH1 0x60 DUP3 ADD CALLDATALOAD PUSH5 0x100000000 DUP2 GT ISZERO PUSH2 0x1FB JUMPI PUSH1 0x0 DUP1 REVERT JUMPDEST DUP3 ADD DUP4 PUSH1 0x20 DUP3 ADD GT ISZERO PUSH2 0x20D JUMPI PUSH1 0x0 DUP1 REVERT JUMPDEST DUP1 CALLDATALOAD SWAP1 PUSH1 0x20 ADD SWAP2 DUP5 PUSH1 0x1 DUP4 MUL DUP5 ADD GT PUSH5 0x100000000 DUP4 GT OR ISZERO PUSH2 0x22F JUMPI PUSH1 0x0 DUP1 REVERT JUMPDEST POP SWAP1 SWAP3 POP SWAP1 POP PUSH2 0x5C3 JUMP JUMPDEST STOP JUMPDEST PUSH2 0x244 PUSH2 0xB0E JUMP JUMPDEST PUSH1 0x40 DUP1 MLOAD PUSH1 0x20 DUP1 DUP3 MSTORE DUP4 MLOAD DUP2 DUP4 ADD MSTORE DUP4 MLOAD SWAP2 SWAP3 DUP4 SWAP3 SWAP1 DUP4 ADD SWAP2 DUP6 ADD SWAP1 DUP1 DUP4 DUP4 PUSH1 0x0 JUMPDEST DUP4 DUP2 LT ISZERO PUSH2 0x27E JUMPI DUP2 DUP2 ADD MLOAD DUP4 DUP3 ADD MSTORE PUSH1 0x20 ADD PUSH2 0x266 JUMP JUMPDEST POP POP POP POP SWAP1 POP SWAP1 DUP2 ADD SWAP1 PUSH1 0x1F AND DUP1 ISZERO PUSH2 0x2AB JUMPI DUP1 DUP3 SUB DUP1 MLOAD PUSH1 0x1 DUP4 PUSH1 0x20 SUB PUSH2 0x100 EXP SUB NOT AND DUP2 MSTORE PUSH1 0x20 ADD SWAP2 POP JUMPDEST POP SWAP3 POP POP POP PUSH1 0x40 MLOAD DUP1 SWAP2 SUB SWAP1 RETURN JUMPDEST PUSH2 0x2C1 PUSH2 0xB31 JUMP JUMPDEST PUSH1 0x40 DUP1 MLOAD PUSH1 0x1 PUSH1 0x1 PUSH1 0x70 SHL SUB SWAP5 DUP6 AND DUP2 MSTORE SWAP3 SWAP1 SWAP4 AND PUSH1 0x20 DUP4 ADD MSTORE PUSH4 0xFFFFFFFF AND DUP2 DUP4 ADD MSTORE SWAP1 MLOAD SWAP1 DUP2 SWAP1 SUB PUSH1 0x60 ADD SWAP1 RETURN JUMPDEST PUSH2 0x31D PUSH1 0x4 DUP1 CALLDATASIZE SUB PUSH1 0x40 DUP2 LT ISZERO PUSH2 0x307 JUMPI PUSH1 0x0 DUP1 REVERT JUMPDEST POP PUSH1 0x1 PUSH1 0x1 PUSH1 0xA0 SHL SUB DUP2 CALLDATALOAD AND SWAP1 PUSH1 0x20 ADD CALLDATALOAD PUSH2 0xB5B JUMP JUMPDEST PUSH1 0x40 DUP1 MLOAD SWAP2 ISZERO ISZERO DUP3 MSTORE MLOAD SWAP1 DUP2 SWAP1 SUB PUSH1 0x20 ADD SWAP1 RETURN JUMPDEST PUSH2 0x339 PUSH2 0xB72 JUMP JUMPDEST PUSH1 0x40 DUP1 MLOAD PUSH1 0x1 PUSH1 0x1 PUSH1 0xA0 SHL SUB SWAP1 SWAP3 AND DUP3 MSTORE MLOAD SWAP1 DUP2 SWAP1 SUB PUSH1 0x20 ADD SWAP1 RETURN JUMPDEST PUSH2 0x35D PUSH2 0xB81 JUMP JUMPDEST PUSH1 0x40 DUP1 MLOAD SWAP2 DUP3 MSTORE MLOAD SWAP1 DUP2 SWAP1 SUB PUSH1 0x20 ADD SWAP1 RETURN JUMPDEST PUSH2 0x31D PUSH1 0x4 DUP1 CALLDATASIZE SUB PUSH1 0x60 DUP2 LT ISZERO PUSH2 0x385 JUMPI PUSH1 0x0 DUP1 REVERT JUMPDEST POP PUSH1 0x1 PUSH1 0x1 PUSH1 0xA0 SHL SUB DUP2 CALLDATALOAD DUP2 AND SWAP2 PUSH1 0x20 DUP2 ADD CALLDATALOAD SWAP1 SWAP2 AND SWAP1 PUSH1 0x40 ADD CALLDATALOAD PUSH2 0xB87 JUMP JUMPDEST PUSH2 0x35D PUSH2 0xC21 JUMP JUMPDEST PUSH2 0x3B5 PUSH2 0xC45 JUMP JUMPDEST PUSH1 0x40 DUP1 MLOAD PUSH1 0xFF SWAP1 SWAP3 AND DUP3 MSTORE MLOAD SWAP1 DUP2 SWAP1 SUB PUSH1 0x20 ADD SWAP1 RETURN JUMPDEST PUSH2 0x35D PUSH2 0xC4A JUMP JUMPDEST PUSH2 0x23A PUSH1 0x4 DUP1 CALLDATASIZE SUB PUSH1 0x40 DUP2 LT ISZERO PUSH2 0x3E9 JUMPI PUSH1 0x0 DUP1 REVERT JUMPDEST POP PUSH1 0x1 PUSH1 0x1 PUSH1 0xA0 SHL SUB DUP2 CALLDATALOAD DUP2 AND SWAP2 PUSH1 0x20 ADD CALLDATALOAD AND PUSH2 0xC50 JUMP JUMPDEST PUSH2 0x35D PUSH2 0xCD2 JUMP JUMPDEST PUSH2 0x35D PUSH2 0xCD8 JUMP JUMPDEST PUSH2 0x35D PUSH1 0x4 DUP1 CALLDATASIZE SUB PUSH1 0x20 DUP2 LT ISZERO PUSH2 0x427 JUMPI PUSH1 0x0 DUP1 REVERT JUMPDEST POP CALLDATALOAD PUSH1 0x1 PUSH1 0x1 PUSH1 0xA0 SHL SUB AND PUSH2 0xCDE JUMP JUMPDEST PUSH2 0x35D PUSH1 0x4 DUP1 CALLDATASIZE SUB PUSH1 0x20 DUP2 LT ISZERO PUSH2 0x44D JUMPI PUSH1 0x0 DUP1 REVERT JUMPDEST POP CALLDATALOAD PUSH1 0x1 PUSH1 0x1 PUSH1 0xA0 SHL SUB AND PUSH2 0xFDC JUMP JUMPDEST PUSH2 0x35D PUSH2 0xFEE JUMP JUMPDEST PUSH2 0x35D PUSH1 0x4 DUP1 CALLDATASIZE SUB PUSH1 0x20 DUP2 LT ISZERO PUSH2 0x47B JUMPI PUSH1 0x0 DUP1 REVERT JUMPDEST POP CALLDATALOAD PUSH1 0x1 PUSH1 0x1 PUSH1 0xA0 SHL SUB AND PUSH2 0xFF4 JUMP JUMPDEST PUSH2 0x4B1 PUSH1 0x4 DUP1 CALLDATASIZE SUB PUSH1 0x20 DUP2 LT ISZERO PUSH2 0x4A1 JUMPI PUSH1 0x0 DUP1 REVERT JUMPDEST POP CALLDATALOAD PUSH1 0x1 PUSH1 0x1 PUSH1 0xA0 SHL SUB AND PUSH2 0x1006 JUMP JUMPDEST PUSH1 0x40 DUP1 MLOAD SWAP3 DUP4 MSTORE PUSH1 0x20 DUP4 ADD SWAP2 SWAP1 SWAP2 MSTORE DUP1 MLOAD SWAP2 DUP3 SWAP1 SUB ADD SWAP1 RETURN JUMPDEST PUSH2 0x244 PUSH2 0x13AA JUMP JUMPDEST PUSH2 0x31D PUSH1 0x4 DUP1 CALLDATASIZE SUB PUSH1 0x40 DUP2 LT ISZERO PUSH2 0x4E8 JUMPI PUSH1 0x0 DUP1 REVERT JUMPDEST POP PUSH1 0x1 PUSH1 0x1 PUSH1 0xA0 SHL SUB DUP2 CALLDATALOAD AND SWAP1 PUSH1 0x20 ADD CALLDATALOAD PUSH2 0x13C8 JUMP JUMPDEST PUSH2 0x35D PUSH2 0x13D5 JUMP JUMPDEST PUSH2 0x23A PUSH1 0x4 DUP1 CALLDATASIZE SUB PUSH1 0x20 DUP2 LT ISZERO PUSH2 0x51C JUMPI PUSH1 0x0 DUP1 REVERT JUMPDEST POP CALLDATALOAD PUSH1 0x1 PUSH1 0x1 PUSH1 0xA0 SHL SUB AND PUSH2 0x13DB JUMP JUMPDEST PUSH2 0x339 PUSH2 0x1544 JUMP JUMPDEST PUSH2 0x339 PUSH2 0x1553 JUMP JUMPDEST PUSH2 0x23A PUSH1 0x4 DUP1 CALLDATASIZE SUB PUSH1 0xE0 DUP2 LT ISZERO PUSH2 0x552 JUMPI PUSH1 0x0 DUP1 REVERT JUMPDEST POP PUSH1 0x1 PUSH1 0x1 PUSH1 0xA0 SHL SUB DUP2 CALLDATALOAD DUP2 AND SWAP2 PUSH1 0x20 DUP2 ADD CALLDATALOAD SWAP1 SWAP2 AND SWAP1 PUSH1 0x40 DUP2 ADD CALLDATALOAD SWAP1 PUSH1 0x60 DUP2 ADD CALLDATALOAD SWAP1 PUSH1 0xFF PUSH1 0x80 DUP3 ADD CALLDATALOAD AND SWAP1 PUSH1 0xA0 DUP2 ADD CALLDATALOAD SWAP1 PUSH1 0xC0 ADD CALLDATALOAD PUSH2 0x1562 JUMP JUMPDEST PUSH2 0x35D PUSH1 0x4 DUP1 CALLDATASIZE SUB PUSH1 0x40 DUP2 LT ISZERO PUSH2 0x5A3 JUMPI PUSH1 0x0 DUP1 REVERT JUMPDEST POP PUSH1 0x1 PUSH1 0x1 PUSH1 0xA0 SHL SUB DUP2 CALLDATALOAD DUP2 AND SWAP2 PUSH1 0x20 ADD CALLDATALOAD AND PUSH2 0x1762 JUMP JUMPDEST PUSH2 0x23A PUSH2 0x177F JUMP JUMPDEST PUSH1 0xC SLOAD PUSH1 0x1 EQ PUSH2 0x60C JUMPI PUSH1 0x40 DUP1 MLOAD PUSH3 0x461BCD PUSH1 0xE5 SHL DUP2 MSTORE PUSH1 0x20 PUSH1 0x4 DUP3 ADD MSTORE PUSH1 0xF PUSH1 0x24 DUP3 ADD MSTORE PUSH15 0x13585D195C9A584E881313D0D2D151 PUSH1 0x8A SHL PUSH1 0x44 DUP3 ADD MSTORE SWAP1 MLOAD SWAP1 DUP2 SWAP1 SUB PUSH1 0x64 ADD SWAP1 REVERT JUMPDEST PUSH1 0x0 PUSH1 0xC SSTORE DUP5 ISZERO ISZERO DUP1 PUSH2 0x61F JUMPI POP PUSH1 0x0 DUP5 GT JUMPDEST PUSH2 0x65A JUMPI PUSH1 0x40 MLOAD PUSH3 0x461BCD PUSH1 0xE5 SHL DUP2 MSTORE PUSH1 0x4 ADD DUP1 DUP1 PUSH1 0x20 ADD DUP3 DUP2 SUB DUP3 MSTORE PUSH1 0x23 DUP2 MSTORE PUSH1 0x20 ADD DUP1 PUSH2 0x21DA PUSH1 0x23 SWAP2 CODECOPY PUSH1 0x40 ADD SWAP2 POP POP PUSH1 0x40 MLOAD DUP1 SWAP2 SUB SWAP1 REVERT JUMPDEST PUSH1 0x0 DUP1 PUSH2 0x665 PUSH2 0xB31 JUMP JUMPDEST POP SWAP2 POP SWAP2 POP DUP2 PUSH1 0x1 PUSH1 0x1 PUSH1 0x70 SHL SUB AND DUP8 LT DUP1 ISZERO PUSH2 0x68A JUMPI POP DUP1 PUSH1 0x1 PUSH1 0x1 PUSH1 0x70 SHL SUB AND DUP7 LT JUMPDEST PUSH2 0x6DB JUMPI PUSH1 0x40 DUP1 MLOAD PUSH3 0x461BCD PUSH1 0xE5 SHL DUP2 MSTORE PUSH1 0x20 PUSH1 0x4 DUP3 ADD MSTORE PUSH1 0x1F PUSH1 0x24 DUP3 ADD MSTORE PUSH32 0x4D6174657269613A20494E53554646494349454E545F4C495155494449545900 PUSH1 0x44 DUP3 ADD MSTORE SWAP1 MLOAD SWAP1 DUP2 SWAP1 SUB PUSH1 0x64 ADD SWAP1 REVERT JUMPDEST PUSH1 0x6 SLOAD PUSH1 0x7 SLOAD PUSH1 0x0 SWAP2 DUP3 SWAP2 PUSH1 0x1 PUSH1 0x1 PUSH1 0xA0 SHL SUB SWAP2 DUP3 AND SWAP2 SWAP1 DUP2 AND SWAP1 DUP10 AND DUP3 EQ DUP1 ISZERO SWAP1 PUSH2 0x719 JUMPI POP DUP1 PUSH1 0x1 PUSH1 0x1 PUSH1 0xA0 SHL SUB AND DUP10 PUSH1 0x1 PUSH1 0x1 PUSH1 0xA0 SHL SUB AND EQ ISZERO JUMPDEST PUSH2 0x760 JUMPI PUSH1 0x40 DUP1 MLOAD PUSH3 0x461BCD PUSH1 0xE5 SHL DUP2 MSTORE PUSH1 0x20 PUSH1 0x4 DUP3 ADD MSTORE PUSH1 0x13 PUSH1 0x24 DUP3 ADD MSTORE PUSH19 0x4D6174657269613A20494E56414C49445F544F PUSH1 0x68 SHL PUSH1 0x44 DUP3 ADD MSTORE SWAP1 MLOAD SWAP1 DUP2 SWAP1 SUB PUSH1 0x64 ADD SWAP1 REVERT JUMPDEST DUP11 ISZERO PUSH2 0x771 JUMPI PUSH2 0x771 DUP3 DUP11 DUP14 PUSH2 0x18DF JUMP JUMPDEST DUP10 ISZERO PUSH2 0x782 JUMPI PUSH2 0x782 DUP2 DUP11 DUP13 PUSH2 0x18DF JUMP JUMPDEST DUP7 ISZERO PUSH2 0x83D JUMPI DUP9 PUSH1 0x1 PUSH1 0x1 PUSH1 0xA0 SHL SUB AND PUSH4 0x8B504DFA CALLER DUP14 DUP14 DUP13 DUP13 PUSH1 0x40 MLOAD DUP7 PUSH4 0xFFFFFFFF AND PUSH1 0xE0 SHL DUP2 MSTORE PUSH1 0x4 ADD DUP1 DUP7 PUSH1 0x1 PUSH1 0x1 PUSH1 0xA0 SHL SUB AND PUSH1 0x1 PUSH1 0x1 PUSH1 0xA0 SHL SUB AND DUP2 MSTORE PUSH1 0x20 ADD DUP6 DUP2 MSTORE PUSH1 0x20 ADD DUP5 DUP2 MSTORE PUSH1 0x20 ADD DUP1 PUSH1 0x20 ADD DUP3 DUP2 SUB DUP3 MSTORE DUP5 DUP5 DUP3 DUP2 DUP2 MSTORE PUSH1 0x20 ADD SWAP3 POP DUP1 DUP3 DUP5 CALLDATACOPY PUSH1 0x0 DUP2 DUP5 ADD MSTORE PUSH1 0x1F NOT PUSH1 0x1F DUP3 ADD AND SWAP1 POP DUP1 DUP4 ADD SWAP3 POP POP POP SWAP7 POP POP POP POP POP POP POP PUSH1 0x0 PUSH1 0x40 MLOAD DUP1 DUP4 SUB DUP2 PUSH1 0x0 DUP8 DUP1 EXTCODESIZE ISZERO DUP1 ISZERO PUSH2 0x824 JUMPI PUSH1 0x0 DUP1 REVERT JUMPDEST POP GAS CALL ISZERO DUP1 ISZERO PUSH2 0x838 JUMPI RETURNDATASIZE PUSH1 0x0 DUP1 RETURNDATACOPY RETURNDATASIZE PUSH1 0x0 REVERT JUMPDEST POP POP POP POP JUMPDEST PUSH1 0x40 DUP1 MLOAD PUSH4 0x70A08231 PUSH1 0xE0 SHL DUP2 MSTORE ADDRESS PUSH1 0x4 DUP3 ADD MSTORE SWAP1 MLOAD PUSH1 0x1 PUSH1 0x1 PUSH1 0xA0 SHL SUB DUP5 AND SWAP2 PUSH4 0x70A08231 SWAP2 PUSH1 0x24 DUP1 DUP4 ADD SWAP3 PUSH1 0x20 SWAP3 SWAP2 SWAP1 DUP3 SWAP1 SUB ADD DUP2 DUP7 DUP1 EXTCODESIZE ISZERO DUP1 ISZERO PUSH2 0x883 JUMPI PUSH1 0x0 DUP1 REVERT JUMPDEST POP GAS STATICCALL ISZERO DUP1 ISZERO PUSH2 0x897 JUMPI RETURNDATASIZE PUSH1 0x0 DUP1 RETURNDATACOPY RETURNDATASIZE PUSH1 0x0 REVERT JUMPDEST POP POP POP POP PUSH1 0x40 MLOAD RETURNDATASIZE PUSH1 0x20 DUP2 LT ISZERO PUSH2 0x8AD JUMPI PUSH1 0x0 DUP1 REVERT JUMPDEST POP MLOAD PUSH1 0x40 DUP1 MLOAD PUSH4 0x70A08231 PUSH1 0xE0 SHL DUP2 MSTORE ADDRESS PUSH1 0x4 DUP3 ADD MSTORE SWAP1 MLOAD SWAP2 SWAP6 POP PUSH1 0x1 PUSH1 0x1 PUSH1 0xA0 SHL SUB DUP4 AND SWAP2 PUSH4 0x70A08231 SWAP2 PUSH1 0x24 DUP1 DUP3 ADD SWAP3 PUSH1 0x20 SWAP3 SWAP1 SWAP2 SWAP1 DUP3 SWAP1 SUB ADD DUP2 DUP7 DUP1 EXTCODESIZE ISZERO DUP1 ISZERO PUSH2 0x8F9 JUMPI PUSH1 0x0 DUP1 REVERT JUMPDEST POP GAS STATICCALL ISZERO DUP1 ISZERO PUSH2 0x90D JUMPI RETURNDATASIZE PUSH1 0x0 DUP1 RETURNDATACOPY RETURNDATASIZE PUSH1 0x0 REVERT JUMPDEST POP POP POP POP PUSH1 0x40 MLOAD RETURNDATASIZE PUSH1 0x20 DUP2 LT ISZERO PUSH2 0x923 JUMPI PUSH1 0x0 DUP1 REVERT JUMPDEST POP MLOAD SWAP3 POP PUSH1 0x0 SWAP2 POP POP PUSH1 0x1 PUSH1 0x1 PUSH1 0x70 SHL SUB DUP6 AND DUP11 SWAP1 SUB DUP4 GT PUSH2 0x946 JUMPI PUSH1 0x0 PUSH2 0x955 JUMP JUMPDEST DUP10 DUP6 PUSH1 0x1 PUSH1 0x1 PUSH1 0x70 SHL SUB AND SUB DUP4 SUB JUMPDEST SWAP1 POP PUSH1 0x0 DUP10 DUP6 PUSH1 0x1 PUSH1 0x1 PUSH1 0x70 SHL SUB AND SUB DUP4 GT PUSH2 0x972 JUMPI PUSH1 0x0 PUSH2 0x981 JUMP JUMPDEST DUP10 DUP6 PUSH1 0x1 PUSH1 0x1 PUSH1 0x70 SHL SUB AND SUB DUP4 SUB JUMPDEST SWAP1 POP PUSH1 0x0 DUP3 GT DUP1 PUSH2 0x992 JUMPI POP PUSH1 0x0 DUP2 GT JUMPDEST PUSH2 0x9CD JUMPI PUSH1 0x40 MLOAD PUSH3 0x461BCD PUSH1 0xE5 SHL DUP2 MSTORE PUSH1 0x4 ADD DUP1 DUP1 PUSH1 0x20 ADD DUP3 DUP2 SUB DUP3 MSTORE PUSH1 0x22 DUP2 MSTORE PUSH1 0x20 ADD DUP1 PUSH2 0x21FD PUSH1 0x22 SWAP2 CODECOPY PUSH1 0x40 ADD SWAP2 POP POP PUSH1 0x40 MLOAD DUP1 SWAP2 SUB SWAP1 REVERT JUMPDEST PUSH1 0x0 PUSH2 0xA01 PUSH2 0x9E3 DUP5 PUSH1 0x3 PUSH4 0xFFFFFFFF PUSH2 0x1A79 AND JUMP JUMPDEST PUSH2 0x9F5 DUP8 PUSH2 0x3E8 PUSH4 0xFFFFFFFF PUSH2 0x1A79 AND JUMP JUMPDEST SWAP1 PUSH4 0xFFFFFFFF PUSH2 0x1ADC AND JUMP JUMPDEST SWAP1 POP PUSH1 0x0 PUSH2 0xA19 PUSH2 0x9E3 DUP5 PUSH1 0x3 PUSH4 0xFFFFFFFF PUSH2 0x1A79 AND JUMP JUMPDEST SWAP1 POP PUSH2 0xA4A PUSH3 0xF4240 PUSH2 0xA3E PUSH1 0x1 PUSH1 0x1 PUSH1 0x70 SHL SUB DUP12 DUP2 AND SWAP1 DUP12 AND PUSH4 0xFFFFFFFF PUSH2 0x1A79 AND JUMP JUMPDEST SWAP1 PUSH4 0xFFFFFFFF PUSH2 0x1A79 AND JUMP JUMPDEST PUSH2 0xA5A DUP4 DUP4 PUSH4 0xFFFFFFFF PUSH2 0x1A79 AND JUMP JUMPDEST LT ISZERO PUSH2 0xA9A JUMPI PUSH1 0x40 DUP1 MLOAD PUSH3 0x461BCD PUSH1 0xE5 SHL DUP2 MSTORE PUSH1 0x20 PUSH1 0x4 DUP3 ADD MSTORE PUSH1 0xA PUSH1 0x24 DUP3 ADD MSTORE PUSH10 0x4D6174657269613A204B PUSH1 0xB0 SHL PUSH1 0x44 DUP3 ADD MSTORE SWAP1 MLOAD SWAP1 DUP2 SWAP1 SUB PUSH1 0x64 ADD SWAP1 REVERT JUMPDEST POP POP PUSH2 0xAA8 DUP5 DUP5 DUP9 DUP9 PUSH2 0x1B2C JUMP JUMPDEST PUSH1 0x40 DUP1 MLOAD DUP4 DUP2 MSTORE PUSH1 0x20 DUP2 ADD DUP4 SWAP1 MSTORE DUP1 DUP3 ADD DUP14 SWAP1 MSTORE PUSH1 0x60 DUP2 ADD DUP13 SWAP1 MSTORE SWAP1 MLOAD PUSH1 0x1 PUSH1 0x1 PUSH1 0xA0 SHL SUB DUP12 AND SWAP2 CALLER SWAP2 PUSH32 0xD78AD95FA46C994B6551D0DA85FC275FE613CE37657FB8D5E3D130840159D822 SWAP2 DUP2 SWAP1 SUB PUSH1 0x80 ADD SWAP1 LOG3 POP POP PUSH1 0x1 PUSH1 0xC SSTORE POP POP POP POP POP POP POP POP POP JUMP JUMPDEST PUSH1 0x40 MLOAD DUP1 PUSH1 0x40 ADD PUSH1 0x40 MSTORE DUP1 PUSH1 0x7 DUP2 MSTORE PUSH1 0x20 ADD PUSH7 0x4D617465726961 PUSH1 0xC8 SHL DUP2 MSTORE POP DUP2 JUMP JUMPDEST PUSH1 0x8 SLOAD PUSH1 0x1 PUSH1 0x1 PUSH1 0x70 SHL SUB DUP1 DUP3 AND SWAP3 PUSH1 0x1 PUSH1 0x70 SHL DUP4 DIV SWAP1 SWAP2 AND SWAP2 PUSH1 0x1 PUSH1 0xE0 SHL SWAP1 DIV PUSH4 0xFFFFFFFF AND SWAP1 JUMP JUMPDEST PUSH1 0x0 PUSH2 0xB68 CALLER DUP5 DUP5 PUSH2 0x1CEF JUMP JUMPDEST POP PUSH1 0x1 JUMPDEST SWAP3 SWAP2 POP POP JUMP JUMPDEST PUSH1 0x6 SLOAD PUSH1 0x1 PUSH1 0x1 PUSH1 0xA0 SHL SUB AND DUP2 JUMP JUMPDEST PUSH1 0x0 SLOAD DUP2 JUMP JUMPDEST PUSH1 0x1 PUSH1 0x1 PUSH1 0xA0 SHL SUB DUP4 AND PUSH1 0x0 SWAP1 DUP2 MSTORE PUSH1 0x2 PUSH1 0x20 SWAP1 DUP2 MSTORE PUSH1 0x40 DUP1 DUP4 KECCAK256 CALLER DUP5 MSTORE SWAP1 SWAP2 MSTORE DUP2 KECCAK256 SLOAD PUSH1 0x0 NOT EQ PUSH2 0xC0C JUMPI PUSH1 0x1 PUSH1 0x1 PUSH1 0xA0 SHL SUB DUP5 AND PUSH1 0x0 SWAP1 DUP2 MSTORE PUSH1 0x2 PUSH1 0x20 SWAP1 DUP2 MSTORE PUSH1 0x40 DUP1 DUP4 KECCAK256 CALLER DUP5 MSTORE SWAP1 SWAP2 MSTORE SWAP1 KECCAK256 SLOAD PUSH2 0xBE7 SWAP1 DUP4 PUSH4 0xFFFFFFFF PUSH2 0x1ADC AND JUMP JUMPDEST PUSH1 0x1 PUSH1 0x1 PUSH1 0xA0 SHL SUB DUP6 AND PUSH1 0x0 SWAP1 DUP2 MSTORE PUSH1 0x2 PUSH1 0x20 SWAP1 DUP2 MSTORE PUSH1 0x40 DUP1 DUP4 KECCAK256 CALLER DUP5 MSTORE SWAP1 SWAP2 MSTORE SWAP1 KECCAK256 SSTORE JUMPDEST PUSH2 0xC17 DUP5 DUP5 DUP5 PUSH2 0x1D51 JUMP JUMPDEST POP PUSH1 0x1 SWAP4 SWAP3 POP POP POP JUMP JUMPDEST PUSH32 0x6E71EDAE12B1B97F4D1F60370FEF10105FA2FAAE0126114A169C64845D6126C9 DUP2 JUMP JUMPDEST PUSH1 0x12 DUP2 JUMP JUMPDEST PUSH1 0x3 SLOAD DUP2 JUMP JUMPDEST PUSH1 0x5 SLOAD PUSH1 0x1 PUSH1 0x1 PUSH1 0xA0 SHL SUB AND CALLER EQ PUSH2 0xCA4 JUMPI PUSH1 0x40 DUP1 MLOAD PUSH3 0x461BCD PUSH1 0xE5 SHL DUP2 MSTORE PUSH1 0x20 PUSH1 0x4 DUP3 ADD MSTORE PUSH1 0x12 PUSH1 0x24 DUP3 ADD MSTORE PUSH18 0x26B0BA32B934B09D102327A92124A22222A7 PUSH1 0x71 SHL PUSH1 0x44 DUP3 ADD MSTORE SWAP1 MLOAD SWAP1 DUP2 SWAP1 SUB PUSH1 0x64 ADD SWAP1 REVERT JUMPDEST PUSH1 0x6 DUP1 SLOAD PUSH1 0x1 PUSH1 0x1 PUSH1 0xA0 SHL SUB SWAP4 DUP5 AND PUSH1 0x1 PUSH1 0x1 PUSH1 0xA0 SHL SUB NOT SWAP2 DUP3 AND OR SWAP1 SWAP2 SSTORE PUSH1 0x7 DUP1 SLOAD SWAP3 SWAP1 SWAP4 AND SWAP2 AND OR SWAP1 SSTORE JUMP JUMPDEST PUSH1 0x9 SLOAD DUP2 JUMP JUMPDEST PUSH1 0xA SLOAD DUP2 JUMP JUMPDEST PUSH1 0x0 PUSH1 0xC SLOAD PUSH1 0x1 EQ PUSH2 0xD29 JUMPI PUSH1 0x40 DUP1 MLOAD PUSH3 0x461BCD PUSH1 0xE5 SHL DUP2 MSTORE PUSH1 0x20 PUSH1 0x4 DUP3 ADD MSTORE PUSH1 0xF PUSH1 0x24 DUP3 ADD MSTORE PUSH15 0x13585D195C9A584E881313D0D2D151 PUSH1 0x8A SHL PUSH1 0x44 DUP3 ADD MSTORE SWAP1 MLOAD SWAP1 DUP2 SWAP1 SUB PUSH1 0x64 ADD SWAP1 REVERT JUMPDEST PUSH1 0x0 PUSH1 0xC DUP2 SWAP1 SSTORE DUP1 PUSH2 0xD39 PUSH2 0xB31 JUMP JUMPDEST POP PUSH1 0x6 SLOAD PUSH1 0x40 DUP1 MLOAD PUSH4 0x70A08231 PUSH1 0xE0 SHL DUP2 MSTORE ADDRESS PUSH1 0x4 DUP3 ADD MSTORE SWAP1 MLOAD SWAP4 SWAP6 POP SWAP2 SWAP4 POP PUSH1 0x0 SWAP3 PUSH1 0x1 PUSH1 0x1 PUSH1 0xA0 SHL SUB SWAP1 SWAP2 AND SWAP2 PUSH4 0x70A08231 SWAP2 PUSH1 0x24 DUP1 DUP4 ADD SWAP3 PUSH1 0x20 SWAP3 SWAP2 SWAP1 DUP3 SWAP1 SUB ADD DUP2 DUP7 DUP1 EXTCODESIZE ISZERO DUP1 ISZERO PUSH2 0xD8D JUMPI PUSH1 0x0 DUP1 REVERT JUMPDEST POP GAS STATICCALL ISZERO DUP1 ISZERO PUSH2 0xDA1 JUMPI RETURNDATASIZE PUSH1 0x0 DUP1 RETURNDATACOPY RETURNDATASIZE PUSH1 0x0 REVERT JUMPDEST POP POP POP POP PUSH1 0x40 MLOAD RETURNDATASIZE PUSH1 0x20 DUP2 LT ISZERO PUSH2 0xDB7 JUMPI PUSH1 0x0 DUP1 REVERT JUMPDEST POP MLOAD PUSH1 0x7 SLOAD PUSH1 0x40 DUP1 MLOAD PUSH4 0x70A08231 PUSH1 0xE0 SHL DUP2 MSTORE ADDRESS PUSH1 0x4 DUP3 ADD MSTORE SWAP1 MLOAD SWAP3 SWAP4 POP PUSH1 0x0 SWAP3 PUSH1 0x1 PUSH1 0x1 PUSH1 0xA0 SHL SUB SWAP1 SWAP3 AND SWAP2 PUSH4 0x70A08231 SWAP2 PUSH1 0x24 DUP1 DUP3 ADD SWAP3 PUSH1 0x20 SWAP3 SWAP1 SWAP2 SWAP1 DUP3 SWAP1 SUB ADD DUP2 DUP7 DUP1 EXTCODESIZE ISZERO DUP1 ISZERO PUSH2 0xE0A JUMPI PUSH1 0x0 DUP1 REVERT JUMPDEST POP GAS STATICCALL ISZERO DUP1 ISZERO PUSH2 0xE1E JUMPI RETURNDATASIZE PUSH1 0x0 DUP1 RETURNDATACOPY RETURNDATASIZE PUSH1 0x0 REVERT JUMPDEST POP POP POP POP PUSH1 0x40 MLOAD RETURNDATASIZE PUSH1 0x20 DUP2 LT ISZERO PUSH2 0xE34 JUMPI PUSH1 0x0 DUP1 REVERT JUMPDEST POP MLOAD SWAP1 POP PUSH1 0x0 PUSH2 0xE53 DUP4 PUSH1 0x1 PUSH1 0x1 PUSH1 0x70 SHL SUB DUP8 AND PUSH4 0xFFFFFFFF PUSH2 0x1ADC AND JUMP JUMPDEST SWAP1 POP PUSH1 0x0 PUSH2 0xE70 DUP4 PUSH1 0x1 PUSH1 0x1 PUSH1 0x70 SHL SUB DUP8 AND PUSH4 0xFFFFFFFF PUSH2 0x1ADC AND JUMP JUMPDEST SWAP1 POP PUSH1 0x0 PUSH2 0xE7E DUP8 DUP8 PUSH2 0x1E0B JUMP JUMPDEST PUSH1 0x0 SLOAD SWAP1 SWAP2 POP DUP1 PUSH2 0xEBB JUMPI PUSH2 0xEA7 PUSH2 0x3E8 PUSH2 0x9F5 PUSH2 0xEA2 DUP8 DUP8 PUSH4 0xFFFFFFFF PUSH2 0x1A79 AND JUMP JUMPDEST PUSH2 0x1F69 JUMP JUMPDEST SWAP9 POP PUSH2 0xEB6 PUSH1 0x0 PUSH2 0x3E8 PUSH2 0x1FBB JUMP JUMPDEST PUSH2 0xF0A JUMP JUMPDEST PUSH2 0xF07 PUSH1 0x1 PUSH1 0x1 PUSH1 0x70 SHL SUB DUP10 AND PUSH2 0xED8 DUP7 DUP5 PUSH4 0xFFFFFFFF PUSH2 0x1A79 AND JUMP JUMPDEST DUP2 PUSH2 0xEDF JUMPI INVALID JUMPDEST DIV PUSH1 0x1 PUSH1 0x1 PUSH1 0x70 SHL SUB DUP10 AND PUSH2 0xEFA DUP7 DUP6 PUSH4 0xFFFFFFFF PUSH2 0x1A79 AND JUMP JUMPDEST DUP2 PUSH2 0xF01 JUMPI INVALID JUMPDEST DIV PUSH2 0x2051 JUMP JUMPDEST SWAP9 POP JUMPDEST PUSH1 0x0 DUP10 GT PUSH2 0xF49 JUMPI PUSH1 0x40 MLOAD PUSH3 0x461BCD PUSH1 0xE5 SHL DUP2 MSTORE PUSH1 0x4 ADD DUP1 DUP1 PUSH1 0x20 ADD DUP3 DUP2 SUB DUP3 MSTORE PUSH1 0x26 DUP2 MSTORE PUSH1 0x20 ADD DUP1 PUSH2 0x21B4 PUSH1 0x26 SWAP2 CODECOPY PUSH1 0x40 ADD SWAP2 POP POP PUSH1 0x40 MLOAD DUP1 SWAP2 SUB SWAP1 REVERT JUMPDEST PUSH2 0xF53 DUP11 DUP11 PUSH2 0x1FBB JUMP JUMPDEST PUSH2 0xF5F DUP7 DUP7 DUP11 DUP11 PUSH2 0x1B2C JUMP JUMPDEST DUP2 ISZERO PUSH2 0xF8F JUMPI PUSH1 0x8 SLOAD PUSH2 0xF8B SWAP1 PUSH1 0x1 PUSH1 0x1 PUSH1 0x70 SHL SUB DUP1 DUP3 AND SWAP2 PUSH1 0x1 PUSH1 0x70 SHL SWAP1 DIV AND PUSH4 0xFFFFFFFF PUSH2 0x1A79 AND JUMP JUMPDEST PUSH1 0xB SSTORE JUMPDEST PUSH1 0x40 DUP1 MLOAD DUP6 DUP2 MSTORE PUSH1 0x20 DUP2 ADD DUP6 SWAP1 MSTORE DUP2 MLOAD CALLER SWAP3 PUSH32 0x4C209B5FC8AD50758F13E2E1088BA56A560DFF690A1C6FEF26394F4C03821C4F SWAP3 DUP3 SWAP1 SUB ADD SWAP1 LOG2 POP POP PUSH1 0x1 PUSH1 0xC SSTORE POP SWAP5 SWAP7 SWAP6 POP POP POP POP POP POP JUMP JUMPDEST PUSH1 0x1 PUSH1 0x20 MSTORE PUSH1 0x0 SWAP1 DUP2 MSTORE PUSH1 0x40 SWAP1 KECCAK256 SLOAD DUP2 JUMP JUMPDEST PUSH1 0xB SLOAD DUP2 JUMP JUMPDEST PUSH1 0x4 PUSH1 0x20 MSTORE PUSH1 0x0 SWAP1 DUP2 MSTORE PUSH1 0x40 SWAP1 KECCAK256 SLOAD DUP2 JUMP JUMPDEST PUSH1 0x0 DUP1 PUSH1 0xC SLOAD PUSH1 0x1 EQ PUSH2 0x1052 JUMPI PUSH1 0x40 DUP1 MLOAD PUSH3 0x461BCD PUSH1 0xE5 SHL DUP2 MSTORE PUSH1 0x20 PUSH1 0x4 DUP3 ADD MSTORE PUSH1 0xF PUSH1 0x24 DUP3 ADD MSTORE PUSH15 0x13585D195C9A584E881313D0D2D151 PUSH1 0x8A SHL PUSH1 0x44 DUP3 ADD MSTORE SWAP1 MLOAD SWAP1 DUP2 SWAP1 SUB PUSH1 0x64 ADD SWAP1 REVERT JUMPDEST PUSH1 0x0 PUSH1 0xC DUP2 SWAP1 SSTORE DUP1 PUSH2 0x1062 PUSH2 0xB31 JUMP JUMPDEST POP PUSH1 0x6 SLOAD PUSH1 0x7 SLOAD PUSH1 0x40 DUP1 MLOAD PUSH4 0x70A08231 PUSH1 0xE0 SHL DUP2 MSTORE ADDRESS PUSH1 0x4 DUP3 ADD MSTORE SWAP1 MLOAD SWAP5 SWAP7 POP SWAP3 SWAP5 POP PUSH1 0x1 PUSH1 0x1 PUSH1 0xA0 SHL SUB SWAP2 DUP3 AND SWAP4 SWAP2 AND SWAP2 PUSH1 0x0 SWAP2 DUP5 SWAP2 PUSH4 0x70A08231 SWAP2 PUSH1 0x24 DUP1 DUP4 ADD SWAP3 PUSH1 0x20 SWAP3 SWAP2 SWAP1 DUP3 SWAP1 SUB ADD DUP2 DUP7 DUP1 EXTCODESIZE ISZERO DUP1 ISZERO PUSH2 0x10BE JUMPI PUSH1 0x0 DUP1 REVERT JUMPDEST POP GAS STATICCALL ISZERO DUP1 ISZERO PUSH2 0x10D2 JUMPI RETURNDATASIZE PUSH1 0x0 DUP1 RETURNDATACOPY RETURNDATASIZE PUSH1 0x0 REVERT JUMPDEST POP POP POP POP PUSH1 0x40 MLOAD RETURNDATASIZE PUSH1 0x20 DUP2 LT ISZERO PUSH2 0x10E8 JUMPI PUSH1 0x0 DUP1 REVERT JUMPDEST POP MLOAD PUSH1 0x40 DUP1 MLOAD PUSH4 0x70A08231 PUSH1 0xE0 SHL DUP2 MSTORE ADDRESS PUSH1 0x4 DUP3 ADD MSTORE SWAP1 MLOAD SWAP2 SWAP3 POP PUSH1 0x0 SWAP2 PUSH1 0x1 PUSH1 0x1 PUSH1 0xA0 SHL SUB DUP6 AND SWAP2 PUSH4 0x70A08231 SWAP2 PUSH1 0x24 DUP1 DUP4 ADD SWAP3 PUSH1 0x20 SWAP3 SWAP2 SWAP1 DUP3 SWAP1 SUB ADD DUP2 DUP7 DUP1 EXTCODESIZE ISZERO DUP1 ISZERO PUSH2 0x1136 JUMPI PUSH1 0x0 DUP1 REVERT JUMPDEST POP GAS STATICCALL ISZERO DUP1 ISZERO PUSH2 0x114A JUMPI RETURNDATASIZE PUSH1 0x0 DUP1 RETURNDATACOPY RETURNDATASIZE PUSH1 0x0 REVERT JUMPDEST POP POP POP POP PUSH1 0x40 MLOAD RETURNDATASIZE PUSH1 0x20 DUP2 LT ISZERO PUSH2 0x1160 JUMPI PUSH1 0x0 DUP1 REVERT JUMPDEST POP MLOAD ADDRESS PUSH1 0x0 SWAP1 DUP2 MSTORE PUSH1 0x1 PUSH1 0x20 MSTORE PUSH1 0x40 DUP2 KECCAK256 SLOAD SWAP2 SWAP3 POP PUSH2 0x117F DUP9 DUP9 PUSH2 0x1E0B JUMP JUMPDEST PUSH1 0x0 SLOAD SWAP1 SWAP2 POP DUP1 PUSH2 0x1196 DUP5 DUP8 PUSH4 0xFFFFFFFF PUSH2 0x1A79 AND JUMP JUMPDEST DUP2 PUSH2 0x119D JUMPI INVALID JUMPDEST DIV SWAP11 POP DUP1 PUSH2 0x11B1 DUP5 DUP7 PUSH4 0xFFFFFFFF PUSH2 0x1A79 AND JUMP JUMPDEST DUP2 PUSH2 0x11B8 JUMPI INVALID JUMPDEST DIV SWAP10 POP PUSH1 0x0 DUP12 GT DUP1 ISZERO PUSH2 0x11CB JUMPI POP PUSH1 0x0 DUP11 GT JUMPDEST PUSH2 0x1206 JUMPI PUSH1 0x40 MLOAD PUSH3 0x461BCD PUSH1 0xE5 SHL DUP2 MSTORE PUSH1 0x4 ADD DUP1 DUP1 PUSH1 0x20 ADD DUP3 DUP2 SUB DUP3 MSTORE PUSH1 0x26 DUP2 MSTORE PUSH1 0x20 ADD DUP1 PUSH2 0x218E PUSH1 0x26 SWAP2 CODECOPY PUSH1 0x40 ADD SWAP2 POP POP PUSH1 0x40 MLOAD DUP1 SWAP2 SUB SWAP1 REVERT JUMPDEST PUSH2 0x1210 ADDRESS DUP5 PUSH2 0x2069 JUMP JUMPDEST PUSH2 0x121B DUP8 DUP14 DUP14 PUSH2 0x18DF JUMP JUMPDEST PUSH2 0x1226 DUP7 DUP14 DUP13 PUSH2 0x18DF JUMP JUMPDEST PUSH1 0x40 DUP1 MLOAD PUSH4 0x70A08231 PUSH1 0xE0 SHL DUP2 MSTORE ADDRESS PUSH1 0x4 DUP3 ADD MSTORE SWAP1 MLOAD PUSH1 0x1 PUSH1 0x1 PUSH1 0xA0 SHL SUB DUP10 AND SWAP2 PUSH4 0x70A08231 SWAP2 PUSH1 0x24 DUP1 DUP4 ADD SWAP3 PUSH1 0x20 SWAP3 SWAP2 SWAP1 DUP3 SWAP1 SUB ADD DUP2 DUP7 DUP1 EXTCODESIZE ISZERO DUP1 ISZERO PUSH2 0x126C JUMPI PUSH1 0x0 DUP1 REVERT JUMPDEST POP GAS STATICCALL ISZERO DUP1 ISZERO PUSH2 0x1280 JUMPI RETURNDATASIZE PUSH1 0x0 DUP1 RETURNDATACOPY RETURNDATASIZE PUSH1 0x0 REVERT JUMPDEST POP POP POP POP PUSH1 0x40 MLOAD RETURNDATASIZE PUSH1 0x20 DUP2 LT ISZERO PUSH2 0x1296 JUMPI PUSH1 0x0 DUP1 REVERT JUMPDEST POP MLOAD PUSH1 0x40 DUP1 MLOAD PUSH4 0x70A08231 PUSH1 0xE0 SHL DUP2 MSTORE ADDRESS PUSH1 0x4 DUP3 ADD MSTORE SWAP1 MLOAD SWAP2 SWAP7 POP PUSH1 0x1 PUSH1 0x1 PUSH1 0xA0 SHL SUB DUP9 AND SWAP2 PUSH4 0x70A08231 SWAP2 PUSH1 0x24 DUP1 DUP3 ADD SWAP3 PUSH1 0x20 SWAP3 SWAP1 SWAP2 SWAP1 DUP3 SWAP1 SUB ADD DUP2 DUP7 DUP1 EXTCODESIZE ISZERO DUP1 ISZERO PUSH2 0x12E2 JUMPI PUSH1 0x0 DUP1 REVERT JUMPDEST POP GAS STATICCALL ISZERO DUP1 ISZERO PUSH2 0x12F6 JUMPI RETURNDATASIZE PUSH1 0x0 DUP1 RETURNDATACOPY RETURNDATASIZE PUSH1 0x0 REVERT JUMPDEST POP POP POP POP PUSH1 0x40 MLOAD RETURNDATASIZE PUSH1 0x20 DUP2 LT ISZERO PUSH2 0x130C JUMPI PUSH1 0x0 DUP1 REVERT JUMPDEST POP MLOAD SWAP4 POP PUSH2 0x131C DUP6 DUP6 DUP12 DUP12 PUSH2 0x1B2C JUMP JUMPDEST DUP2 ISZERO PUSH2 0x134C JUMPI PUSH1 0x8 SLOAD PUSH2 0x1348 SWAP1 PUSH1 0x1 PUSH1 0x1 PUSH1 0x70 SHL SUB DUP1 DUP3 AND SWAP2 PUSH1 0x1 PUSH1 0x70 SHL SWAP1 DIV AND PUSH4 0xFFFFFFFF PUSH2 0x1A79 AND JUMP JUMPDEST PUSH1 0xB SSTORE JUMPDEST PUSH1 0x40 DUP1 MLOAD DUP13 DUP2 MSTORE PUSH1 0x20 DUP2 ADD DUP13 SWAP1 MSTORE DUP2 MLOAD PUSH1 0x1 PUSH1 0x1 PUSH1 0xA0 SHL SUB DUP16 AND SWAP3 CALLER SWAP3 PUSH32 0xDCCD412F0B1252819CB1FD330B93224CA42612892BB3F4F789976E6D81936496 SWAP3 SWAP1 DUP2 SWAP1 SUB SWAP1 SWAP2 ADD SWAP1 LOG3 POP POP POP POP POP POP POP POP POP PUSH1 0x1 PUSH1 0xC DUP2 SWAP1 SSTORE POP SWAP2 POP SWAP2 JUMP JUMPDEST PUSH1 0x40 MLOAD DUP1 PUSH1 0x40 ADD PUSH1 0x40 MSTORE DUP1 PUSH1 0x2 DUP2 MSTORE PUSH1 0x20 ADD PUSH2 0x4D5 PUSH1 0xF4 SHL DUP2 MSTORE POP DUP2 JUMP JUMPDEST PUSH1 0x0 PUSH2 0xB68 CALLER DUP5 DUP5 PUSH2 0x1D51 JUMP JUMPDEST PUSH2 0x3E8 DUP2 JUMP JUMPDEST PUSH1 0xC SLOAD PUSH1 0x1 EQ PUSH2 0x1424 JUMPI PUSH1 0x40 DUP1 MLOAD PUSH3 0x461BCD PUSH1 0xE5 SHL DUP2 MSTORE PUSH1 0x20 PUSH1 0x4 DUP3 ADD MSTORE PUSH1 0xF PUSH1 0x24 DUP3 ADD MSTORE PUSH15 0x13585D195C9A584E881313D0D2D151 PUSH1 0x8A SHL PUSH1 0x44 DUP3 ADD MSTORE SWAP1 MLOAD SWAP1 DUP2 SWAP1 SUB PUSH1 0x64 ADD SWAP1 REVERT JUMPDEST PUSH1 0x0 PUSH1 0xC SSTORE PUSH1 0x6 SLOAD PUSH1 0x7 SLOAD PUSH1 0x8 SLOAD PUSH1 0x40 DUP1 MLOAD PUSH4 0x70A08231 PUSH1 0xE0 SHL DUP2 MSTORE ADDRESS PUSH1 0x4 DUP3 ADD MSTORE SWAP1 MLOAD PUSH1 0x1 PUSH1 0x1 PUSH1 0xA0 SHL SUB SWAP5 DUP6 AND SWAP5 SWAP1 SWAP4 AND SWAP3 PUSH2 0x14D3 SWAP3 DUP6 SWAP3 DUP8 SWAP3 PUSH2 0x14CE SWAP3 PUSH1 0x1 PUSH1 0x1 PUSH1 0x70 SHL SUB AND SWAP2 DUP6 SWAP2 PUSH4 0x70A08231 SWAP2 PUSH1 0x24 DUP1 DUP3 ADD SWAP3 PUSH1 0x20 SWAP3 SWAP1 SWAP2 SWAP1 DUP3 SWAP1 SUB ADD DUP2 DUP7 DUP1 EXTCODESIZE ISZERO DUP1 ISZERO PUSH2 0x1496 JUMPI PUSH1 0x0 DUP1 REVERT JUMPDEST POP GAS STATICCALL ISZERO DUP1 ISZERO PUSH2 0x14AA JUMPI RETURNDATASIZE PUSH1 0x0 DUP1 RETURNDATACOPY RETURNDATASIZE PUSH1 0x0 REVERT JUMPDEST POP POP POP POP PUSH1 0x40 MLOAD RETURNDATASIZE PUSH1 0x20 DUP2 LT ISZERO PUSH2 0x14C0 JUMPI PUSH1 0x0 DUP1 REVERT JUMPDEST POP MLOAD SWAP1 PUSH4 0xFFFFFFFF PUSH2 0x1ADC AND JUMP JUMPDEST PUSH2 0x18DF JUMP JUMPDEST PUSH1 0x8 SLOAD PUSH1 0x40 DUP1 MLOAD PUSH4 0x70A08231 PUSH1 0xE0 SHL DUP2 MSTORE ADDRESS PUSH1 0x4 DUP3 ADD MSTORE SWAP1 MLOAD PUSH2 0x153A SWAP3 DUP5 SWAP3 DUP8 SWAP3 PUSH2 0x14CE SWAP3 PUSH1 0x1 PUSH1 0x70 SHL SWAP1 DIV PUSH1 0x1 PUSH1 0x1 PUSH1 0x70 SHL SUB AND SWAP2 PUSH1 0x1 PUSH1 0x1 PUSH1 0xA0 SHL SUB DUP7 AND SWAP2 PUSH4 0x70A08231 SWAP2 PUSH1 0x24 DUP1 DUP3 ADD SWAP3 PUSH1 0x20 SWAP3 SWAP1 SWAP2 SWAP1 DUP3 SWAP1 SUB ADD DUP2 DUP7 DUP1 EXTCODESIZE ISZERO DUP1 ISZERO PUSH2 0x1496 JUMPI PUSH1 0x0 DUP1 REVERT JUMPDEST POP POP PUSH1 0x1 PUSH1 0xC SSTORE POP JUMP JUMPDEST PUSH1 0x5 SLOAD PUSH1 0x1 PUSH1 0x1 PUSH1 0xA0 SHL SUB AND DUP2 JUMP JUMPDEST PUSH1 0x7 SLOAD PUSH1 0x1 PUSH1 0x1 PUSH1 0xA0 SHL SUB AND DUP2 JUMP JUMPDEST TIMESTAMP DUP5 LT ISZERO PUSH2 0x15AA JUMPI PUSH1 0x40 DUP1 MLOAD PUSH3 0x461BCD PUSH1 0xE5 SHL DUP2 MSTORE PUSH1 0x20 PUSH1 0x4 DUP3 ADD MSTORE PUSH1 0x10 PUSH1 0x24 DUP3 ADD MSTORE PUSH16 0x13585D195C9A584E8811561412549151 PUSH1 0x82 SHL PUSH1 0x44 DUP3 ADD MSTORE SWAP1 MLOAD SWAP1 DUP2 SWAP1 SUB PUSH1 0x64 ADD SWAP1 REVERT JUMPDEST PUSH1 0x3 SLOAD PUSH1 0x1 PUSH1 0x1 PUSH1 0xA0 SHL SUB DUP1 DUP10 AND PUSH1 0x0 DUP2 DUP2 MSTORE PUSH1 0x4 PUSH1 0x20 SWAP1 DUP2 MSTORE PUSH1 0x40 DUP1 DUP4 KECCAK256 DUP1 SLOAD PUSH1 0x1 DUP1 DUP3 ADD SWAP1 SWAP3 SSTORE DUP3 MLOAD PUSH32 0x6E71EDAE12B1B97F4D1F60370FEF10105FA2FAAE0126114A169C64845D6126C9 DUP2 DUP7 ADD MSTORE DUP1 DUP5 ADD SWAP7 SWAP1 SWAP7 MSTORE SWAP6 DUP14 AND PUSH1 0x60 DUP7 ADD MSTORE PUSH1 0x80 DUP6 ADD DUP13 SWAP1 MSTORE PUSH1 0xA0 DUP6 ADD SWAP6 SWAP1 SWAP6 MSTORE PUSH1 0xC0 DUP1 DUP6 ADD DUP12 SWAP1 MSTORE DUP2 MLOAD DUP1 DUP7 SUB SWAP1 SWAP2 ADD DUP2 MSTORE PUSH1 0xE0 DUP6 ADD DUP3 MSTORE DUP1 MLOAD SWAP1 DUP4 ADD KECCAK256 PUSH2 0x1901 PUSH1 0xF0 SHL PUSH2 0x100 DUP7 ADD MSTORE PUSH2 0x102 DUP6 ADD SWAP7 SWAP1 SWAP7 MSTORE PUSH2 0x122 DUP1 DUP6 ADD SWAP7 SWAP1 SWAP7 MSTORE DUP1 MLOAD DUP1 DUP6 SUB SWAP1 SWAP7 ADD DUP7 MSTORE PUSH2 0x142 DUP5 ADD DUP1 DUP3 MSTORE DUP7 MLOAD SWAP7 DUP4 ADD SWAP7 SWAP1 SWAP7 KECCAK256 SWAP6 DUP4 SWAP1 MSTORE PUSH2 0x162 DUP5 ADD DUP1 DUP3 MSTORE DUP7 SWAP1 MSTORE PUSH1 0xFF DUP10 AND PUSH2 0x182 DUP6 ADD MSTORE PUSH2 0x1A2 DUP5 ADD DUP9 SWAP1 MSTORE PUSH2 0x1C2 DUP5 ADD DUP8 SWAP1 MSTORE MLOAD SWAP2 SWAP4 SWAP3 PUSH2 0x1E2 DUP1 DUP3 ADD SWAP4 PUSH1 0x1F NOT DUP2 ADD SWAP3 DUP2 SWAP1 SUB SWAP1 SWAP2 ADD SWAP1 DUP6 GAS STATICCALL ISZERO DUP1 ISZERO PUSH2 0x16C5 JUMPI RETURNDATASIZE PUSH1 0x0 DUP1 RETURNDATACOPY RETURNDATASIZE PUSH1 0x0 REVERT JUMPDEST POP POP PUSH1 0x40 MLOAD PUSH1 0x1F NOT ADD MLOAD SWAP2 POP POP PUSH1 0x1 PUSH1 0x1 PUSH1 0xA0 SHL SUB DUP2 AND ISZERO DUP1 ISZERO SWAP1 PUSH2 0x16FB JUMPI POP DUP9 PUSH1 0x1 PUSH1 0x1 PUSH1 0xA0 SHL SUB AND DUP2 PUSH1 0x1 PUSH1 0x1 PUSH1 0xA0 SHL SUB AND EQ JUMPDEST PUSH2 0x174C JUMPI PUSH1 0x40 DUP1 MLOAD PUSH3 0x461BCD PUSH1 0xE5 SHL DUP2 MSTORE PUSH1 0x20 PUSH1 0x4 DUP3 ADD MSTORE PUSH1 0x1A PUSH1 0x24 DUP3 ADD MSTORE PUSH32 0x4D6174657269613A20494E56414C49445F5349474E4154555245000000000000 PUSH1 0x44 DUP3 ADD MSTORE SWAP1 MLOAD SWAP1 DUP2 SWAP1 SUB PUSH1 0x64 ADD SWAP1 REVERT JUMPDEST PUSH2 0x1757 DUP10 DUP10 DUP10 PUSH2 0x1CEF JUMP JUMPDEST POP POP POP POP POP POP POP POP POP JUMP JUMPDEST PUSH1 0x2 PUSH1 0x20 SWAP1 DUP2 MSTORE PUSH1 0x0 SWAP3 DUP4 MSTORE PUSH1 0x40 DUP1 DUP5 KECCAK256 SWAP1 SWAP2 MSTORE SWAP1 DUP3 MSTORE SWAP1 KECCAK256 SLOAD DUP2 JUMP JUMPDEST PUSH1 0xC SLOAD PUSH1 0x1 EQ PUSH2 0x17C8 JUMPI PUSH1 0x40 DUP1 MLOAD PUSH3 0x461BCD PUSH1 0xE5 SHL DUP2 MSTORE PUSH1 0x20 PUSH1 0x4 DUP3 ADD MSTORE PUSH1 0xF PUSH1 0x24 DUP3 ADD MSTORE PUSH15 0x13585D195C9A584E881313D0D2D151 PUSH1 0x8A SHL PUSH1 0x44 DUP3 ADD MSTORE SWAP1 MLOAD SWAP1 DUP2 SWAP1 SUB PUSH1 0x64 ADD SWAP1 REVERT JUMPDEST PUSH1 0x0 PUSH1 0xC SSTORE PUSH1 0x6 SLOAD PUSH1 0x40 DUP1 MLOAD PUSH4 0x70A08231 PUSH1 0xE0 SHL DUP2 MSTORE ADDRESS PUSH1 0x4 DUP3 ADD MSTORE SWAP1 MLOAD PUSH2 0x18D8 SWAP3 PUSH1 0x1 PUSH1 0x1 PUSH1 0xA0 SHL SUB AND SWAP2 PUSH4 0x70A08231 SWAP2 PUSH1 0x24 DUP1 DUP4 ADD SWAP3 PUSH1 0x20 SWAP3 SWAP2 SWAP1 DUP3 SWAP1 SUB ADD DUP2 DUP7 DUP1 EXTCODESIZE ISZERO DUP1 ISZERO PUSH2 0x1819 JUMPI PUSH1 0x0 DUP1 REVERT JUMPDEST POP GAS STATICCALL ISZERO DUP1 ISZERO PUSH2 0x182D JUMPI RETURNDATASIZE PUSH1 0x0 DUP1 RETURNDATACOPY RETURNDATASIZE PUSH1 0x0 REVERT JUMPDEST POP POP POP POP PUSH1 0x40 MLOAD RETURNDATASIZE PUSH1 0x20 DUP2 LT ISZERO PUSH2 0x1843 JUMPI PUSH1 0x0 DUP1 REVERT JUMPDEST POP MLOAD PUSH1 0x7 SLOAD PUSH1 0x40 DUP1 MLOAD PUSH4 0x70A08231 PUSH1 0xE0 SHL DUP2 MSTORE ADDRESS PUSH1 0x4 DUP3 ADD MSTORE SWAP1 MLOAD PUSH1 0x1 PUSH1 0x1 PUSH1 0xA0 SHL SUB SWAP1 SWAP3 AND SWAP2 PUSH4 0x70A08231 SWAP2 PUSH1 0x24 DUP1 DUP3 ADD SWAP3 PUSH1 0x20 SWAP3 SWAP1 SWAP2 SWAP1 DUP3 SWAP1 SUB ADD DUP2 DUP7 DUP1 EXTCODESIZE ISZERO DUP1 ISZERO PUSH2 0x1890 JUMPI PUSH1 0x0 DUP1 REVERT JUMPDEST POP GAS STATICCALL ISZERO DUP1 ISZERO PUSH2 0x18A4 JUMPI RETURNDATASIZE PUSH1 0x0 DUP1 RETURNDATACOPY RETURNDATASIZE PUSH1 0x0 REVERT JUMPDEST POP POP POP POP PUSH1 0x40 MLOAD RETURNDATASIZE PUSH1 0x20 DUP2 LT ISZERO PUSH2 0x18BA JUMPI PUSH1 0x0 DUP1 REVERT JUMPDEST POP MLOAD PUSH1 0x8 SLOAD PUSH1 0x1 PUSH1 0x1 PUSH1 0x70 SHL SUB DUP1 DUP3 AND SWAP2 PUSH1 0x1 PUSH1 0x70 SHL SWAP1 DIV AND PUSH2 0x1B2C JUMP JUMPDEST PUSH1 0x1 PUSH1 0xC SSTORE JUMP JUMPDEST PUSH1 0x40 DUP1 MLOAD DUP1 DUP3 ADD DUP3 MSTORE PUSH1 0x19 DUP2 MSTORE PUSH32 0x7472616E7366657228616464726573732C75696E743235362900000000000000 PUSH1 0x20 SWAP2 DUP3 ADD MSTORE DUP2 MLOAD PUSH1 0x1 PUSH1 0x1 PUSH1 0xA0 SHL SUB DUP6 DUP2 AND PUSH1 0x24 DUP4 ADD MSTORE PUSH1 0x44 DUP1 DUP4 ADD DUP7 SWAP1 MSTORE DUP5 MLOAD DUP1 DUP5 SUB SWAP1 SWAP2 ADD DUP2 MSTORE PUSH1 0x64 SWAP1 SWAP3 ADD DUP5 MSTORE SWAP2 DUP2 ADD DUP1 MLOAD PUSH1 0x1 PUSH1 0x1 PUSH1 0xE0 SHL SUB AND PUSH4 0xA9059CBB PUSH1 0xE0 SHL OR DUP2 MSTORE SWAP3 MLOAD DUP2 MLOAD PUSH1 0x0 SWAP5 PUSH1 0x60 SWAP5 DUP10 AND SWAP4 SWAP3 SWAP2 DUP3 SWAP2 SWAP1 DUP1 DUP4 DUP4 JUMPDEST PUSH1 0x20 DUP4 LT PUSH2 0x198C JUMPI DUP1 MLOAD DUP3 MSTORE PUSH1 0x1F NOT SWAP1 SWAP3 ADD SWAP2 PUSH1 0x20 SWAP2 DUP3 ADD SWAP2 ADD PUSH2 0x196D JUMP JUMPDEST PUSH1 0x1 DUP4 PUSH1 0x20 SUB PUSH2 0x100 EXP SUB DUP1 NOT DUP3 MLOAD AND DUP2 DUP5 MLOAD AND DUP1 DUP3 OR DUP6 MSTORE POP POP POP POP POP POP SWAP1 POP ADD SWAP2 POP POP PUSH1 0x0 PUSH1 0x40 MLOAD DUP1 DUP4 SUB DUP2 PUSH1 0x0 DUP7 GAS CALL SWAP2 POP POP RETURNDATASIZE DUP1 PUSH1 0x0 DUP2 EQ PUSH2 0x19EE JUMPI PUSH1 0x40 MLOAD SWAP2 POP PUSH1 0x1F NOT PUSH1 0x3F RETURNDATASIZE ADD AND DUP3 ADD PUSH1 0x40 MSTORE RETURNDATASIZE DUP3 MSTORE RETURNDATASIZE PUSH1 0x0 PUSH1 0x20 DUP5 ADD RETURNDATACOPY PUSH2 0x19F3 JUMP JUMPDEST PUSH1 0x60 SWAP2 POP JUMPDEST POP SWAP2 POP SWAP2 POP DUP2 DUP1 ISZERO PUSH2 0x1A21 JUMPI POP DUP1 MLOAD ISZERO DUP1 PUSH2 0x1A21 JUMPI POP DUP1 DUP1 PUSH1 0x20 ADD SWAP1 MLOAD PUSH1 0x20 DUP2 LT ISZERO PUSH2 0x1A1E JUMPI PUSH1 0x0 DUP1 REVERT JUMPDEST POP MLOAD JUMPDEST PUSH2 0x1A72 JUMPI PUSH1 0x40 DUP1 MLOAD PUSH3 0x461BCD PUSH1 0xE5 SHL DUP2 MSTORE PUSH1 0x20 PUSH1 0x4 DUP3 ADD MSTORE PUSH1 0x18 PUSH1 0x24 DUP3 ADD MSTORE PUSH32 0x4D6174657269613A205452414E534645525F4641494C45440000000000000000 PUSH1 0x44 DUP3 ADD MSTORE SWAP1 MLOAD SWAP1 DUP2 SWAP1 SUB PUSH1 0x64 ADD SWAP1 REVERT JUMPDEST POP POP POP POP POP JUMP JUMPDEST PUSH1 0x0 DUP2 ISZERO DUP1 PUSH2 0x1A94 JUMPI POP POP DUP1 DUP3 MUL DUP3 DUP3 DUP3 DUP2 PUSH2 0x1A91 JUMPI INVALID JUMPDEST DIV EQ JUMPDEST PUSH2 0xB6C JUMPI PUSH1 0x40 DUP1 MLOAD PUSH3 0x461BCD PUSH1 0xE5 SHL DUP2 MSTORE PUSH1 0x20 PUSH1 0x4 DUP3 ADD MSTORE PUSH1 0x14 PUSH1 0x24 DUP3 ADD MSTORE PUSH20 0x64732D6D6174682D6D756C2D6F766572666C6F77 PUSH1 0x60 SHL PUSH1 0x44 DUP3 ADD MSTORE SWAP1 MLOAD SWAP1 DUP2 SWAP1 SUB PUSH1 0x64 ADD SWAP1 REVERT JUMPDEST DUP1 DUP3 SUB DUP3 DUP2 GT ISZERO PUSH2 0xB6C JUMPI PUSH1 0x40 DUP1 MLOAD PUSH3 0x461BCD PUSH1 0xE5 SHL DUP2 MSTORE PUSH1 0x20 PUSH1 0x4 DUP3 ADD MSTORE PUSH1 0x15 PUSH1 0x24 DUP3 ADD MSTORE PUSH21 0x64732D6D6174682D7375622D756E646572666C6F77 PUSH1 0x58 SHL PUSH1 0x44 DUP3 ADD MSTORE SWAP1 MLOAD SWAP1 DUP2 SWAP1 SUB PUSH1 0x64 ADD SWAP1 REVERT JUMPDEST PUSH1 0x1 PUSH1 0x1 PUSH1 0x70 SHL SUB DUP5 GT DUP1 ISZERO SWAP1 PUSH2 0x1B4A JUMPI POP PUSH1 0x1 PUSH1 0x1 PUSH1 0x70 SHL SUB DUP4 GT ISZERO JUMPDEST PUSH2 0x1B8F JUMPI PUSH1 0x40 DUP1 MLOAD PUSH3 0x461BCD PUSH1 0xE5 SHL DUP2 MSTORE PUSH1 0x20 PUSH1 0x4 DUP3 ADD MSTORE PUSH1 0x11 PUSH1 0x24 DUP3 ADD MSTORE PUSH17 0x4D6174657269613A204F564552464C4F57 PUSH1 0x78 SHL PUSH1 0x44 DUP3 ADD MSTORE SWAP1 MLOAD SWAP1 DUP2 SWAP1 SUB PUSH1 0x64 ADD SWAP1 REVERT JUMPDEST PUSH1 0x8 SLOAD PUSH4 0xFFFFFFFF TIMESTAMP DUP2 AND SWAP2 PUSH1 0x1 PUSH1 0xE0 SHL SWAP1 DIV DUP2 AND DUP3 SUB SWAP1 DUP2 AND ISZERO DUP1 ISZERO SWAP1 PUSH2 0x1BBF JUMPI POP PUSH1 0x1 PUSH1 0x1 PUSH1 0x70 SHL SUB DUP5 AND ISZERO ISZERO JUMPDEST DUP1 ISZERO PUSH2 0x1BD3 JUMPI POP PUSH1 0x1 PUSH1 0x1 PUSH1 0x70 SHL SUB DUP4 AND ISZERO ISZERO JUMPDEST ISZERO PUSH2 0x1C44 JUMPI DUP1 PUSH4 0xFFFFFFFF AND PUSH2 0x1C01 DUP6 PUSH2 0x1BEC DUP7 PUSH2 0x2107 JUMP JUMPDEST PUSH1 0x1 PUSH1 0x1 PUSH1 0xE0 SHL SUB AND SWAP1 PUSH4 0xFFFFFFFF PUSH2 0x2119 AND JUMP JUMPDEST PUSH1 0x9 DUP1 SLOAD PUSH1 0x1 PUSH1 0x1 PUSH1 0xE0 SHL SUB SWAP3 SWAP1 SWAP3 AND SWAP3 SWAP1 SWAP3 MUL ADD SWAP1 SSTORE PUSH4 0xFFFFFFFF DUP2 AND PUSH2 0x1C2C DUP5 PUSH2 0x1BEC DUP8 PUSH2 0x2107 JUMP JUMPDEST PUSH1 0xA DUP1 SLOAD PUSH1 0x1 PUSH1 0x1 PUSH1 0xE0 SHL SUB SWAP3 SWAP1 SWAP3 AND SWAP3 SWAP1 SWAP3 MUL ADD SWAP1 SSTORE JUMPDEST PUSH1 0x8 DUP1 SLOAD PUSH14 0xFFFFFFFFFFFFFFFFFFFFFFFFFFFF NOT AND PUSH1 0x1 PUSH1 0x1 PUSH1 0x70 SHL SUB DUP9 DUP2 AND SWAP2 SWAP1 SWAP2 OR PUSH14 0xFFFFFFFFFFFFFFFFFFFFFFFFFFFF PUSH1 0x70 SHL NOT AND PUSH1 0x1 PUSH1 0x70 SHL DUP9 DUP4 AND DUP2 MUL SWAP2 SWAP1 SWAP2 OR PUSH1 0x1 PUSH1 0x1 PUSH1 0xE0 SHL SUB AND PUSH1 0x1 PUSH1 0xE0 SHL PUSH4 0xFFFFFFFF DUP8 AND MUL OR SWAP3 DUP4 SWAP1 SSTORE PUSH1 0x40 DUP1 MLOAD DUP5 DUP5 AND DUP2 MSTORE SWAP2 SWAP1 SWAP4 DIV SWAP1 SWAP2 AND PUSH1 0x20 DUP3 ADD MSTORE DUP2 MLOAD PUSH32 0x1C411E9A96E071241C2F21F7726B17AE89E3CAB4C78BE50E062B03A9FFFBBAD1 SWAP3 SWAP2 DUP2 SWAP1 SUB SWAP1 SWAP2 ADD SWAP1 LOG1 POP POP POP POP POP POP JUMP JUMPDEST PUSH1 0x1 PUSH1 0x1 PUSH1 0xA0 SHL SUB DUP1 DUP5 AND PUSH1 0x0 DUP2 DUP2 MSTORE PUSH1 0x2 PUSH1 0x20 SWAP1 DUP2 MSTORE PUSH1 0x40 DUP1 DUP4 KECCAK256 SWAP5 DUP8 AND DUP1 DUP5 MSTORE SWAP5 DUP3 MSTORE SWAP2 DUP3 SWAP1 KECCAK256 DUP6 SWAP1 SSTORE DUP2 MLOAD DUP6 DUP2 MSTORE SWAP2 MLOAD PUSH32 0x8C5BE1E5EBEC7D5BD14F71427D1E84F3DD0314C0F7B2291E5B200AC8C7C3B925 SWAP3 DUP2 SWAP1 SUB SWAP1 SWAP2 ADD SWAP1 LOG3 POP POP POP JUMP JUMPDEST PUSH1 0x1 PUSH1 0x1 PUSH1 0xA0 SHL SUB DUP4 AND PUSH1 0x0 SWAP1 DUP2 MSTORE PUSH1 0x1 PUSH1 0x20 MSTORE PUSH1 0x40 SWAP1 KECCAK256 SLOAD PUSH2 0x1D7A SWAP1 DUP3 PUSH4 0xFFFFFFFF PUSH2 0x1ADC AND JUMP JUMPDEST PUSH1 0x1 PUSH1 0x1 PUSH1 0xA0 SHL SUB DUP1 DUP6 AND PUSH1 0x0 SWAP1 DUP2 MSTORE PUSH1 0x1 PUSH1 0x20 MSTORE PUSH1 0x40 DUP1 DUP3 KECCAK256 SWAP4 SWAP1 SWAP4 SSTORE SWAP1 DUP5 AND DUP2 MSTORE KECCAK256 SLOAD PUSH2 0x1DAF SWAP1 DUP3 PUSH4 0xFFFFFFFF PUSH2 0x213E AND JUMP JUMPDEST PUSH1 0x1 PUSH1 0x1 PUSH1 0xA0 SHL SUB DUP1 DUP5 AND PUSH1 0x0 DUP2 DUP2 MSTORE PUSH1 0x1 PUSH1 0x20 SWAP1 DUP2 MSTORE PUSH1 0x40 SWAP2 DUP3 SWAP1 KECCAK256 SWAP5 SWAP1 SWAP5 SSTORE DUP1 MLOAD DUP6 DUP2 MSTORE SWAP1 MLOAD SWAP2 SWAP4 SWAP3 DUP8 AND SWAP3 PUSH32 0xDDF252AD1BE2C89B69C2B068FC378DAA952BA7F163C4A11628F55A4DF523B3EF SWAP3 SWAP2 DUP3 SWAP1 SUB ADD SWAP1 LOG3 POP POP POP JUMP JUMPDEST PUSH1 0x0 DUP1 PUSH1 0x5 PUSH1 0x0 SWAP1 SLOAD SWAP1 PUSH2 0x100 EXP SWAP1 DIV PUSH1 0x1 PUSH1 0x1 PUSH1 0xA0 SHL SUB AND PUSH1 0x1 PUSH1 0x1 PUSH1 0xA0 SHL SUB AND PUSH4 0x17E7E58 PUSH1 0x40 MLOAD DUP2 PUSH4 0xFFFFFFFF AND PUSH1 0xE0 SHL DUP2 MSTORE PUSH1 0x4 ADD PUSH1 0x20 PUSH1 0x40 MLOAD DUP1 DUP4 SUB DUP2 DUP7 DUP1 EXTCODESIZE ISZERO DUP1 ISZERO PUSH2 0x1E5C JUMPI PUSH1 0x0 DUP1 REVERT JUMPDEST POP GAS STATICCALL ISZERO DUP1 ISZERO PUSH2 0x1E70 JUMPI RETURNDATASIZE PUSH1 0x0 DUP1 RETURNDATACOPY RETURNDATASIZE PUSH1 0x0 REVERT JUMPDEST POP POP POP POP PUSH1 0x40 MLOAD RETURNDATASIZE PUSH1 0x20 DUP2 LT ISZERO PUSH2 0x1E86 JUMPI PUSH1 0x0 DUP1 REVERT JUMPDEST POP MLOAD PUSH1 0xB SLOAD PUSH1 0x1 PUSH1 0x1 PUSH1 0xA0 SHL SUB DUP3 AND ISZERO DUP1 ISZERO SWAP5 POP SWAP2 SWAP3 POP SWAP1 PUSH2 0x1F55 JUMPI DUP1 ISZERO PUSH2 0x1F50 JUMPI PUSH1 0x0 PUSH2 0x1EC9 PUSH2 0xEA2 PUSH1 0x1 PUSH1 0x1 PUSH1 0x70 SHL SUB DUP9 DUP2 AND SWAP1 DUP9 AND PUSH4 0xFFFFFFFF PUSH2 0x1A79 AND JUMP JUMPDEST SWAP1 POP PUSH1 0x0 PUSH2 0x1ED6 DUP4 PUSH2 0x1F69 JUMP JUMPDEST SWAP1 POP DUP1 DUP3 GT ISZERO PUSH2 0x1F4D JUMPI PUSH1 0x0 PUSH2 0x1F04 PUSH2 0x1EF5 DUP5 DUP5 PUSH4 0xFFFFFFFF PUSH2 0x1ADC AND JUMP JUMPDEST PUSH1 0x0 SLOAD SWAP1 PUSH4 0xFFFFFFFF PUSH2 0x1A79 AND JUMP JUMPDEST SWAP1 POP PUSH1 0x0 PUSH2 0x1F29 DUP4 PUSH2 0x1F1D DUP7 PUSH1 0x5 PUSH4 0xFFFFFFFF PUSH2 0x1A79 AND JUMP JUMPDEST SWAP1 PUSH4 0xFFFFFFFF PUSH2 0x213E AND JUMP JUMPDEST SWAP1 POP PUSH1 0x0 DUP2 DUP4 DUP2 PUSH2 0x1F36 JUMPI INVALID JUMPDEST DIV SWAP1 POP DUP1 ISZERO PUSH2 0x1F49 JUMPI PUSH2 0x1F49 DUP8 DUP3 PUSH2 0x1FBB JUMP JUMPDEST POP POP POP JUMPDEST POP POP JUMPDEST PUSH2 0x1F61 JUMP JUMPDEST DUP1 ISZERO PUSH2 0x1F61 JUMPI PUSH1 0x0 PUSH1 0xB SSTORE JUMPDEST POP POP SWAP3 SWAP2 POP POP JUMP JUMPDEST PUSH1 0x0 PUSH1 0x3 DUP3 GT ISZERO PUSH2 0x1FAC JUMPI POP DUP1 PUSH1 0x1 PUSH1 0x2 DUP3 DIV ADD JUMPDEST DUP2 DUP2 LT ISZERO PUSH2 0x1FA6 JUMPI DUP1 SWAP2 POP PUSH1 0x2 DUP2 DUP3 DUP6 DUP2 PUSH2 0x1F95 JUMPI INVALID JUMPDEST DIV ADD DUP2 PUSH2 0x1F9E JUMPI INVALID JUMPDEST DIV SWAP1 POP PUSH2 0x1F7E JUMP JUMPDEST POP PUSH2 0x1FB6 JUMP JUMPDEST DUP2 ISZERO PUSH2 0x1FB6 JUMPI POP PUSH1 0x1 JUMPDEST SWAP2 SWAP1 POP JUMP JUMPDEST PUSH1 0x0 SLOAD PUSH2 0x1FCE SWAP1 DUP3 PUSH4 0xFFFFFFFF PUSH2 0x213E AND JUMP JUMPDEST PUSH1 0x0 SWAP1 DUP2 SSTORE PUSH1 0x1 PUSH1 0x1 PUSH1 0xA0 SHL SUB DUP4 AND DUP2 MSTORE PUSH1 0x1 PUSH1 0x20 MSTORE PUSH1 0x40 SWAP1 KECCAK256 SLOAD PUSH2 0x1FF9 SWAP1 DUP3 PUSH4 0xFFFFFFFF PUSH2 0x213E AND JUMP JUMPDEST PUSH1 0x1 PUSH1 0x1 PUSH1 0xA0 SHL SUB DUP4 AND PUSH1 0x0 DUP2 DUP2 MSTORE PUSH1 0x1 PUSH1 0x20 SWAP1 DUP2 MSTORE PUSH1 0x40 DUP1 DUP4 KECCAK256 SWAP5 SWAP1 SWAP5 SSTORE DUP4 MLOAD DUP6 DUP2 MSTORE SWAP4 MLOAD SWAP3 SWAP4 SWAP2 SWAP3 PUSH32 0xDDF252AD1BE2C89B69C2B068FC378DAA952BA7F163C4A11628F55A4DF523B3EF SWAP3 DUP2 SWAP1 SUB SWAP1 SWAP2 ADD SWAP1 LOG3 POP POP JUMP JUMPDEST PUSH1 0x0 DUP2 DUP4 LT PUSH2 0x2060 JUMPI DUP2 PUSH2 0x2062 JUMP JUMPDEST DUP3 JUMPDEST SWAP4 SWAP3 POP POP POP JUMP JUMPDEST PUSH1 0x1 PUSH1 0x1 PUSH1 0xA0 SHL SUB DUP3 AND PUSH1 0x0 SWAP1 DUP2 MSTORE PUSH1 0x1 PUSH1 0x20 MSTORE PUSH1 0x40 SWAP1 KECCAK256 SLOAD PUSH2 0x2092 SWAP1 DUP3 PUSH4 0xFFFFFFFF PUSH2 0x1ADC AND JUMP JUMPDEST PUSH1 0x1 PUSH1 0x1 PUSH1 0xA0 SHL SUB DUP4 AND PUSH1 0x0 SWAP1 DUP2 MSTORE PUSH1 0x1 PUSH1 0x20 MSTORE PUSH1 0x40 DUP2 KECCAK256 SWAP2 SWAP1 SWAP2 SSTORE SLOAD PUSH2 0x20BF SWAP1 DUP3 PUSH4 0xFFFFFFFF PUSH2 0x1ADC AND JUMP JUMPDEST PUSH1 0x0 SWAP1 DUP2 SSTORE PUSH1 0x40 DUP1 MLOAD DUP4 DUP2 MSTORE SWAP1 MLOAD PUSH1 0x1 PUSH1 0x1 PUSH1 0xA0 SHL SUB DUP6 AND SWAP2 PUSH32 0xDDF252AD1BE2C89B69C2B068FC378DAA952BA7F163C4A11628F55A4DF523B3EF SWAP2 SWAP1 DUP2 SWAP1 SUB PUSH1 0x20 ADD SWAP1 LOG3 POP POP JUMP JUMPDEST PUSH1 0x1 PUSH1 0x1 PUSH1 0x70 SHL SUB AND PUSH1 0x1 PUSH1 0x70 SHL MUL SWAP1 JUMP JUMPDEST PUSH1 0x0 PUSH1 0x1 PUSH1 0x1 PUSH1 0x70 SHL SUB DUP3 AND PUSH1 0x1 PUSH1 0x1 PUSH1 0xE0 SHL SUB DUP5 AND DUP2 PUSH2 0x2136 JUMPI INVALID JUMPDEST DIV SWAP4 SWAP3 POP POP POP JUMP JUMPDEST DUP1 DUP3 ADD DUP3 DUP2 LT ISZERO PUSH2 0xB6C JUMPI PUSH1 0x40 DUP1 MLOAD PUSH3 0x461BCD PUSH1 0xE5 SHL DUP2 MSTORE PUSH1 0x20 PUSH1 0x4 DUP3 ADD MSTORE PUSH1 0x14 PUSH1 0x24 DUP3 ADD MSTORE PUSH20 0x64732D6D6174682D6164642D6F766572666C6F77 PUSH1 0x60 SHL PUSH1 0x44 DUP3 ADD MSTORE SWAP1 MLOAD SWAP1 DUP2 SWAP1 SUB PUSH1 0x64 ADD SWAP1 REVERT INVALID 0x4D PUSH2 0x7465 PUSH19 0x69613A20494E53554646494349454E545F4C49 MLOAD SSTORE 0x49 DIFFICULTY 0x49 SLOAD MSIZE 0x5F TIMESTAMP SSTORE MSTORE 0x4E GASLIMIT DIFFICULTY 0x4D PUSH2 0x7465 PUSH19 0x69613A20494E53554646494349454E545F4C49 MLOAD SSTORE 0x49 DIFFICULTY 0x49 SLOAD MSIZE 0x5F 0x4D 0x49 0x4E SLOAD GASLIMIT DIFFICULTY 0x4D PUSH2 0x7465 PUSH19 0x69613A20494E53554646494349454E545F4F55 SLOAD POP SSTORE SLOAD 0x5F COINBASE 0x4D 0x4F SSTORE 0x4E SLOAD 0x4D PUSH2 0x7465 PUSH19 0x69613A20494E53554646494349454E545F494E POP SSTORE SLOAD 0x5F COINBASE 0x4D 0x4F SSTORE 0x4E SLOAD LOG2 PUSH6 0x627A7A723158 KECCAK256 MSIZE CODESIZE XOR STOP DUP15 PUSH31 0x1D1E833CFBDE89F53BD3ED132EC35D5971A797FEFC214A00C51764736F6C63 NUMBER STOP SDIV LT STOP ORIGIN GASLIMIT 0x49 POP CALLDATACOPY BALANCE ORIGIN DIFFICULTY PUSH16 0x6D61696E28737472696E67206E616D65 0x2C PUSH20 0x7472696E672076657273696F6E2C75696E743235 CALLDATASIZE KECCAK256 PUSH4 0x6861696E 0x49 PUSH5 0x2C61646472 PUSH6 0x737320766572 PUSH10 0x6679696E67436F6E7472 PUSH2 0x6374 0x29 0x4D PUSH2 0x7465 PUSH19 0x69613A204D5553545F42455F43414C4C45445F TIMESTAMP MSIZE 0x5F MSTORE 0x4F SSTORE SLOAD GASLIMIT MSTORE LOG2 PUSH6 0x627A7A723158 KECCAK256 RETURNDATASIZE DUP1 SWAP9 RETURNDATASIZE PUSH31 0x5824266237C316CA3CA8B663986ED455DAA8F234E3ABAEF090CDBD64736F6C PUSH4 0x43000510 STOP ORIGIN "
		},
		"gasEstimates": {
			"creation": {
				"codeDepositCost": "2363800",
				"executionCost": "23362",
				"totalCost": "2387162"
			},
			"external": {
				"allPairs(uint256)": "2059",
				"allPairsLength()": "1109",
				"createPair(address,address)": "infinite",
				"emergencyMode()": "1050",
				"feeTo()": "1038",
				"feeToSetter()": "1082",
				"getPair(address,address)": "1300",
				"init(address)": "42810",
				"router()": "1125",
				"setEmergencyMode(bool)": "infinite",
				"setFeeTo(address)": "22822",
				"setFeeToSetter(address)": "22779",
				"setRouter(address)": "infinite"
			}
		},
		"methodIdentifiers": {
			"allPairs(uint256)": "1e3dd18b",
			"allPairsLength()": "574f2ba3",
			"createPair(address,address)": "c9c65396",
			"emergencyMode()": "0905f560",
			"feeTo()": "017e7e58",
			"feeToSetter()": "094b7415",
			"getPair(address,address)": "e6a43905",
			"init(address)": "19ab453c",
			"router()": "f887ea40",
			"setEmergencyMode(bool)": "be32b3f8",
			"setFeeTo(address)": "f46901ed",
			"setFeeToSetter(address)": "a2e74af6",
			"setRouter(address)": "c0d78655"
		}
	},
	"abi": [
		{
			"inputs": [],
			"payable": false,
			"stateMutability": "nonpayable",
			"type": "constructor"
		},
		{
			"anonymous": false,
			"inputs": [
				{
					"indexed": true,
					"internalType": "address",
					"name": "token0",
					"type": "address"
				},
				{
					"indexed": true,
					"internalType": "address",
					"name": "token1",
					"type": "address"
				},
				{
					"indexed": false,
					"internalType": "address",
					"name": "pair",
					"type": "address"
				},
				{
					"indexed": false,
					"internalType": "uint256",
					"name": "",
					"type": "uint256"
				}
			],
			"name": "PairCreated",
			"type": "event"
		},
		{
			"constant": true,
			"inputs": [
				{
					"internalType": "uint256",
					"name": "",
					"type": "uint256"
				}
			],
			"name": "allPairs",
			"outputs": [
				{
					"internalType": "address",
					"name": "",
					"type": "address"
				}
			],
			"payable": false,
			"stateMutability": "view",
			"type": "function"
		},
		{
			"constant": true,
			"inputs": [],
			"name": "allPairsLength",
			"outputs": [
				{
					"internalType": "uint256",
					"name": "",
					"type": "uint256"
				}
			],
			"payable": false,
			"stateMutability": "view",
			"type": "function"
		},
		{
			"constant": false,
			"inputs": [
				{
					"internalType": "address",
					"name": "tokenA",
					"type": "address"
				},
				{
					"internalType": "address",
					"name": "tokenB",
					"type": "address"
				}
			],
			"name": "createPair",
			"outputs": [
				{
					"internalType": "address",
					"name": "pair",
					"type": "address"
				}
			],
			"payable": false,
			"stateMutability": "nonpayable",
			"type": "function"
		},
		{
			"constant": true,
			"inputs": [],
			"name": "emergencyMode",
			"outputs": [
				{
					"internalType": "bool",
					"name": "",
					"type": "bool"
				}
			],
			"payable": false,
			"stateMutability": "view",
			"type": "function"
		},
		{
			"constant": true,
			"inputs": [],
			"name": "feeTo",
			"outputs": [
				{
					"internalType": "address",
					"name": "",
					"type": "address"
				}
			],
			"payable": false,
			"stateMutability": "view",
			"type": "function"
		},
		{
			"constant": true,
			"inputs": [],
			"name": "feeToSetter",
			"outputs": [
				{
					"internalType": "address",
					"name": "",
					"type": "address"
				}
			],
			"payable": false,
			"stateMutability": "view",
			"type": "function"
		},
		{
			"constant": true,
			"inputs": [
				{
					"internalType": "address",
					"name": "",
					"type": "address"
				},
				{
					"internalType": "address",
					"name": "",
					"type": "address"
				}
			],
			"name": "getPair",
			"outputs": [
				{
					"internalType": "address",
					"name": "",
					"type": "address"
				}
			],
			"payable": false,
			"stateMutability": "view",
			"type": "function"
		},
		{
			"constant": false,
			"inputs": [
				{
					"internalType": "address",
					"name": "_feeToSetter",
					"type": "address"
				}
			],
			"name": "init",
			"outputs": [],
			"payable": false,
			"stateMutability": "nonpayable",
			"type": "function"
		},
		{
			"constant": true,
			"inputs": [],
			"name": "router",
			"outputs": [
				{
					"internalType": "address",
					"name": "",
					"type": "address"
				}
			],
			"payable": false,
			"stateMutability": "view",
			"type": "function"
		},
		{
			"constant": false,
			"inputs": [
				{
					"internalType": "bool",
					"name": "status",
					"type": "bool"
				}
			],
			"name": "setEmergencyMode",
			"outputs": [],
			"payable": false,
			"stateMutability": "nonpayable",
			"type": "function"
		},
		{
			"constant": false,
			"inputs": [
				{
					"internalType": "address",
					"name": "_feeTo",
					"type": "address"
				}
			],
			"name": "setFeeTo",
			"outputs": [],
			"payable": false,
			"stateMutability": "nonpayable",
			"type": "function"
		},
		{
			"constant": false,
			"inputs": [
				{
					"internalType": "address",
					"name": "_feeToSetter",
					"type": "address"
				}
			],
			"name": "setFeeToSetter",
			"outputs": [],
			"payable": false,
			"stateMutability": "nonpayable",
			"type": "function"
		},
		{
			"constant": false,
			"inputs": [
				{
					"internalType": "address",
					"name": "newRouter",
					"type": "address"
				}
			],
			"name": "setRouter",
			"outputs": [],
			"payable": false,
			"stateMutability": "nonpayable",
			"type": "function"
		}
	]
}